

Microchip Technology PIC18 LITE Macro Assembler V1.35 build -356382666 
                                                                                               Mon Apr 24 01:24:24 2017

Microchip Technology Omniscient Code Generator v1.35 (Free mode) build 201507080246
     1                           	processor	18F4550
     2                           	fnconf	rparam,??,?,0
     3                           	opt	pw 120
     4                           	opt	lm
     5                           	psect	idataCOMRAM,global,class=CODE,delta=1
     6                           	psect	mediumconst,global,reloc=2,class=MEDIUMCONST,delta=1
     7                           	psect	cinit,global,reloc=2,class=CODE,delta=1
     8                           	psect	dataCOMRAM,global,class=COMRAM,space=1,delta=1
     9                           	psect	cstackCOMRAM,global,class=COMRAM,space=1,delta=1
    10                           	psect	text0,global,reloc=2,class=CODE,delta=1
    11                           	psect	text1,global,reloc=2,class=CODE,delta=1
    12                           	psect	text2,global,reloc=2,class=CODE,delta=1
    13                           	psect	text3,global,reloc=2,class=CODE,delta=1
    14                           	psect	text4,global,reloc=2,class=CODE,delta=1
    15                           	psect	text5,global,reloc=2,class=CODE,delta=1
    16                           	psect	text6,global,reloc=2,class=CODE,delta=1
    17                           	psect	text7,global,reloc=2,class=CODE,delta=1
    18                           	psect	text8,global,reloc=2,class=CODE,delta=1
    19                           	psect	intsave_regs,global,class=BIGRAM,space=1,delta=1
    20                           	psect	rparam,global,class=COMRAM,space=1,delta=1
    21  0000                     
    22                           	psect	idataCOMRAM
    23  007948                     __pidataCOMRAM:
    24                           	opt stack 0
    25                           
    26                           ;initializer for _message
    27  007948  48                 	db	72
    28  007949  65                 	db	101
    29  00794A  6C                 	db	108
    30  00794B  6C                 	db	108
    31  00794C  6F                 	db	111
    32  00794D  20                 	db	32
    33  00794E  57                 	db	87
    34  00794F  6F                 	db	111
    35  007950  72                 	db	114
    36  007951  6C                 	db	108
    37  007952  64                 	db	100
    38  007953  21                 	db	33
    39  007954  00                 	db	0
    40  007955  00                 	db	0
    41  007956  00                 	db	0
    42  007957  00                 	db	0
    43                           
    44                           	psect	mediumconst
    45  007BFE                     __pmediumconst:
    46                           	opt stack 0
    47  007BFE  00                 	db	0
    48  007BFF                     _MH:
    49                           	opt stack 0
    50  007BFF  00                 	db	0
    51  007C00  00                 	db	0
    52  007C01  80                 	db	128
    53  007C02  00                 	db	0
    54  007C03  00                 	db	0
    55  007C04  00                 	db	0
    56  007C05  00                 	db	0
    57  007C06  00                 	db	0
    58  007C07  00                 	db	0
    59  007C08  00                 	db	0
    60  007C09  00                 	db	0
    61  007C0A  00                 	db	0
    62  007C0B  00                 	db	0
    63  007C0C  00                 	db	0
    64  007C0D  00                 	db	0
    65  007C0E  00                 	db	0
    66  007C0F  00                 	db	0
    67  007C10  09                 	db	9
    68  007C11  78                 	db	120
    69  007C12  00                 	db	0
    70  007C13  00                 	db	0
    71  007C14  20                 	db	32
    72  007C15  00                 	db	0
    73  007C16  00                 	db	0
    74  007C17  00                 	db	0
    75  007C18  00                 	db	0
    76  007C19  00                 	db	0
    77  007C1A  00                 	db	0
    78  007C1B  00                 	db	0
    79  007C1C  00                 	db	0
    80  007C1D  00                 	db	0
    81  007C1E  00                 	db	0
    82  007C1F  00                 	db	0
    83  007C20  15                 	db	21
    84  007C21  10                 	db	16
    85  007C22  00                 	db	0
    86  007C23  00                 	db	0
    87  007C24  50                 	db	80
    88  007C25  00                 	db	0
    89  007C26  00                 	db	0
    90  007C27  00                 	db	0
    91  007C28  00                 	db	0
    92  007C29  00                 	db	0
    93  007C2A  00                 	db	0
    94  007C2B  00                 	db	0
    95  007C2C  00                 	db	0
    96  007C2D  00                 	db	0
    97  007C2E  00                 	db	0
    98  007C2F  00                 	db	0
    99  007C30  12                 	db	18
   100  007C31  0F                 	db	15
   101  007C32  00                 	db	0
   102  007C33  02                 	db	2
   103  007C34  9C                 	db	156
   104  007C35  C0                 	db	192
   105  007C36  00                 	db	0
   106  007C37  01                 	db	1
   107  007C38  D9                 	db	217
   108  007C39  80                 	db	128
   109  007C3A  00                 	db	0
   110  007C3B  00                 	db	0
   111  007C3C  00                 	db	0
   112  007C3D  00                 	db	0
   113  007C3E  80                 	db	128
   114  007C3F  00                 	db	0
   115  007C40  20                 	db	32
   116  007C41  01                 	db	1
   117  007C42  80                 	db	128
   118  007C43  05                 	db	5
   119  007C44  1B                 	db	27
   120  007C45  20                 	db	32
   121  007C46  00                 	db	0
   122  007C47  02                 	db	2
   123  007C48  26                 	db	38
   124  007C49  40                 	db	64
   125  007C4A  00                 	db	0
   126  007C4B  00                 	db	0
   127  007C4C  00                 	db	0
   128  007C4D  23                 	db	35
   129  007C4E  80                 	db	128
   130  007C4F  00                 	db	0
   131  007C50  40                 	db	64
   132  007C51  02                 	db	2
   133  007C52  00                 	db	0
   134  007C53  04                 	db	4
   135  007C54  26                 	db	38
   136  007C55  20                 	db	32
   137  007C56  00                 	db	0
   138  007C57  05                 	db	5
   139  007C58  DC                 	db	220
   140  007C59  40                 	db	64
   141  007C5A  00                 	db	0
   142  007C5B  00                 	db	0
   143  007C5C  00                 	db	0
   144  007C5D  54                 	db	84
   145  007C5E  80                 	db	128
   146  007C5F  00                 	db	0
   147  007C60  47                 	db	71
   148  007C61  82                 	db	130
   149  007C62  C0                 	db	192
   150  007C63  04                 	db	4
   151  007C64  04                 	db	4
   152  007C65  10                 	db	16
   153  007C66  40                 	db	64
   154  007C67  0A                 	db	10
   155  007C68  E8                 	db	232
   156  007C69  20                 	db	32
   157  007C6A  00                 	db	0
   158  007C6B  00                 	db	0
   159  007C6C  10                 	db	16
   160  007C6D  98                 	db	152
   161  007C6E  80                 	db	128
   162  007C6F  00                 	db	0
   163  007C70  8E                 	db	142
   164  007C71  42                 	db	66
   165  007C72  A0                 	db	160
   166  007C73  08                 	db	8
   167  007C74  86                 	db	134
   168  007C75  08                 	db	8
   169  007C76  A0                 	db	160
   170  007C77  10                 	db	16
   171  007C78  0C                 	db	12
   172  007C79  10                 	db	16
   173  007C7A  00                 	db	0
   174  007C7B  00                 	db	0
   175  007C7C  29                 	db	41
   176  007C7D  11                 	db	17
   177  007C7E  00                 	db	0
   178  007C7F  00                 	db	0
   179  007C80  EC                 	db	236
   180  007C81  01                 	db	1
   181  007C82  90                 	db	144
   182  007C83  19                 	db	25
   183  007C84  81                 	db	129
   184  007C85  85                 	db	133
   185  007C86  90                 	db	144
   186  007C87  10                 	db	16
   187  007C88  03                 	db	3
   188  007C89  08                 	db	8
   189  007C8A  00                 	db	0
   190  007C8B  00                 	db	0
   191  007C8C  CE                 	db	206
   192  007C8D  21                 	db	33
   193  007C8E  00                 	db	0
   194  007C8F  01                 	db	1
   195  007C90  00                 	db	0
   196  007C91  01                 	db	1
   197  007C92  90                 	db	144
   198  007C93  18                 	db	24
   199  007C94  00                 	db	0
   200  007C95  43                 	db	67
   201  007C96  08                 	db	8
   202  007C97  08                 	db	8
   203  007C98  00                 	db	0
   204  007C99  84                 	db	132
   205  007C9A  00                 	db	0
   206  007C9B  01                 	db	1
   207  007C9C  11                 	db	17
   208  007C9D  C2                 	db	194
   209  007C9E  00                 	db	0
   210  007C9F  03                 	db	3
   211  007CA0  00                 	db	0
   212  007CA1  01                 	db	1
   213  007CA2  50                 	db	80
   214  007CA3  1C                 	db	28
   215  007CA4  10                 	db	16
   216  007CA5  41                 	db	65
   217  007CA6  88                 	db	136
   218  007CA7  04                 	db	4
   219  007CA8  00                 	db	0
   220  007CA9  02                 	db	2
   221  007CAA  00                 	db	0
   222  007CAB  02                 	db	2
   223  007CAC  00                 	db	0
   224  007CAD  02                 	db	2
   225  007CAE  00                 	db	0
   226  007CAF  02                 	db	2
   227  007CB0  00                 	db	0
   228  007CB1  02                 	db	2
   229  007CB2  50                 	db	80
   230  007CB3  08                 	db	8
   231  007CB4  E0                 	db	224
   232  007CB5  40                 	db	64
   233  007CB6  C8                 	db	200
   234  007CB7  03                 	db	3
   235  007CB8  80                 	db	128
   236  007CB9  01                 	db	1
   237  007CBA  00                 	db	0
   238  007CBB  0C                 	db	12
   239  007CBC  80                 	db	128
   240  007CBD  82                 	db	130
   241  007CBE  00                 	db	0
   242  007CBF  02                 	db	2
   243  007CC0  00                 	db	0
   244  007CC1  06                 	db	6
   245  007CC2  A0                 	db	160
   246  007CC3  13                 	db	19
   247  007CC4  20                 	db	32
   248  007CC5  10                 	db	16
   249  007CC6  50                 	db	80
   250  007CC7  00                 	db	0
   251  007CC8  40                 	db	64
   252  007CC9  00                 	db	0
   253  007CCA  80                 	db	128
   254  007CCB  10                 	db	16
   255  007CCC  81                 	db	129
   256  007CCD  01                 	db	1
   257  007CCE  02                 	db	2
   258  007CCF  01                 	db	1
   259  007CD0  C2                 	db	194
   260  007CD1  05                 	db	5
   261  007CD2  40                 	db	64
   262  007CD3  3C                 	db	60
   263  007CD4  10                 	db	16
   264  007CD5  18                 	db	24
   265  007CD6  30                 	db	48
   266  007CD7  00                 	db	0
   267  007CD8  20                 	db	32
   268  007CD9  50                 	db	80
   269  007CDA  40                 	db	64
   270  007CDB  10                 	db	16
   271  007CDC  02                 	db	2
   272  007CDD  01                 	db	1
   273  007CDE  06                 	db	6
   274  007CDF  01                 	db	1
   275  007CE0  24                 	db	36
   276  007CE1  02                 	db	2
   277  007CE2  80                 	db	128
   278  007CE3  00                 	db	0
   279  007CE4  10                 	db	16
   280  007CE5  04                 	db	4
   281  007CE6  10                 	db	16
   282  007CE7  00                 	db	0
   283  007CE8  20                 	db	32
   284  007CE9  28                 	db	40
   285  007CEA  20                 	db	32
   286  007CEB  10                 	db	16
   287  007CEC  62                 	db	98
   288  007CED  00                 	db	0
   289  007CEE  FA                 	db	250
   290  007CEF  00                 	db	0
   291  007CF0  20                 	db	32
   292  007CF1  01                 	db	1
   293  007CF2  00                 	db	0
   294  007CF3  00                 	db	0
   295  007CF4  08                 	db	8
   296  007CF5  04                 	db	4
   297  007CF6  08                 	db	8
   298  007CF7  00                 	db	0
   299  007CF8  28                 	db	40
   300  007CF9  08                 	db	8
   301  007CFA  10                 	db	16
   302  007CFB  0F                 	db	15
   303  007CFC  F4                 	db	244
   304  007CFD  08                 	db	8
   305  007CFE  04                 	db	4
   306  007CFF  00                 	db	0
   307  007D00  20                 	db	32
   308  007D01  09                 	db	9
   309  007D02  00                 	db	0
   310  007D03  00                 	db	0
   311  007D04  06                 	db	6
   312  007D05  06                 	db	6
   313  007D06  70                 	db	112
   314  007D07  00                 	db	0
   315  007D08  28                 	db	40
   316  007D09  84                 	db	132
   317  007D0A  E0                 	db	224
   318  007D0B  00                 	db	0
   319  007D0C  14                 	db	20
   320  007D0D  10                 	db	16
   321  007D0E  18                 	db	24
   322  007D0F  00                 	db	0
   323  007D10  24                 	db	36
   324  007D11  19                 	db	25
   325  007D12  00                 	db	0
   326  007D13  00                 	db	0
   327  007D14  04                 	db	4
   328  007D15  86                 	db	134
   329  007D16  80                 	db	128
   330  007D17  00                 	db	0
   331  007D18  28                 	db	40
   332  007D19  85                 	db	133
   333  007D1A  E0                 	db	224
   334  007D1B  00                 	db	0
   335  007D1C  14                 	db	20
   336  007D1D  60                 	db	96
   337  007D1E  60                 	db	96
   338  007D1F  00                 	db	0
   339  007D20  24                 	db	36
   340  007D21  65                 	db	101
   341  007D22  00                 	db	0
   342  007D23  00                 	db	0
   343  007D24  02                 	db	2
   344  007D25  E5                 	db	229
   345  007D26  00                 	db	0
   346  007D27  00                 	db	0
   347  007D28  18                 	db	24
   348  007D29  E2                 	db	226
   349  007D2A  10                 	db	16
   350  007D2B  00                 	db	0
   351  007D2C  1C                 	db	28
   352  007D2D  A7                 	db	167
   353  007D2E  80                 	db	128
   354  007D2F  00                 	db	0
   355  007D30  2C                 	db	44
   356  007D31  46                 	db	70
   357  007D32  00                 	db	0
   358  007D33  00                 	db	0
   359  007D34  03                 	db	3
   360  007D35  34                 	db	52
   361  007D36  00                 	db	0
   362  007D37  00                 	db	0
   363  007D38  0D                 	db	13
   364  007D39  B7                 	db	183
   365  007D3A  F8                 	db	248
   366  007D3B  00                 	db	0
   367  007D3C  05                 	db	5
   368  007D3D  28                 	db	40
   369  007D3E  00                 	db	0
   370  007D3F  00                 	db	0
   371  007D40  1E                 	db	30
   372  007D41  40                 	db	64
   373  007D42  00                 	db	0
   374  007D43  00                 	db	0
   375  007D44  00                 	db	0
   376  007D45  18                 	db	24
   377  007D46  00                 	db	0
   378  007D47  00                 	db	0
   379  007D48  03                 	db	3
   380  007D49  18                 	db	24
   381  007D4A  00                 	db	0
   382  007D4B  00                 	db	0
   383  007D4C  06                 	db	6
   384  007D4D  10                 	db	16
   385  007D4E  00                 	db	0
   386  007D4F  00                 	db	0
   387  007D50  03                 	db	3
   388  007D51  80                 	db	128
   389  007D52  00                 	db	0
   390  007D53  00                 	db	0
   391  007D54  00                 	db	0
   392  007D55  00                 	db	0
   393  007D56  00                 	db	0
   394  007D57  00                 	db	0
   395  007D58  00                 	db	0
   396  007D59  00                 	db	0
   397  007D5A  00                 	db	0
   398  007D5B  00                 	db	0
   399  007D5C  00                 	db	0
   400  007D5D  00                 	db	0
   401  007D5E  00                 	db	0
   402  007D5F  00                 	db	0
   403  007D60  00                 	db	0
   404  007D61  00                 	db	0
   405  007D62  00                 	db	0
   406  007D63  00                 	db	0
   407  007D64  00                 	db	0
   408  007D65  00                 	db	0
   409  007D66  00                 	db	0
   410  007D67  00                 	db	0
   411  007D68  73                 	db	115
   412  007D69  00                 	db	0
   413  007D6A  00                 	db	0
   414  007D6B  00                 	db	0
   415  007D6C  00                 	db	0
   416  007D6D  00                 	db	0
   417  007D6E  00                 	db	0
   418  007D6F  03                 	db	3
   419  007D70  F8                 	db	248
   420  007D71  00                 	db	0
   421  007D72  00                 	db	0
   422  007D73  E0                 	db	224
   423  007D74  A4                 	db	164
   424  007D75  00                 	db	0
   425  007D76  00                 	db	0
   426  007D77  00                 	db	0
   427  007D78  AD                 	db	173
   428  007D79  F8                 	db	248
   429  007D7A  00                 	db	0
   430  007D7B  00                 	db	0
   431  007D7C  00                 	db	0
   432  007D7D  00                 	db	0
   433  007D7E  00                 	db	0
   434  007D7F  04                 	db	4
   435  007D80  06                 	db	6
   436  007D81  00                 	db	0
   437  007D82  00                 	db	0
   438  007D83  51                 	db	81
   439  007D84  1B                 	db	27
   440  007D85  00                 	db	0
   441  007D86  00                 	db	0
   442  007D87  01                 	db	1
   443  007D88  22                 	db	34
   444  007D89  04                 	db	4
   445  007D8A  00                 	db	0
   446  007D8B  00                 	db	0
   447  007D8C  00                 	db	0
   448  007D8D  00                 	db	0
   449  007D8E  00                 	db	0
   450  007D8F  03                 	db	3
   451  007D90  01                 	db	1
   452  007D91  00                 	db	0
   453  007D92  00                 	db	0
   454  007D93  2A                 	db	42
   455  007D94  10                 	db	16
   456  007D95  E0                 	db	224
   457  007D96  00                 	db	0
   458  007D97  01                 	db	1
   459  007D98  21                 	db	33
   460  007D99  02                 	db	2
   461  007D9A  00                 	db	0
   462  007D9B  00                 	db	0
   463  007D9C  00                 	db	0
   464  007D9D  00                 	db	0
   465  007D9E  00                 	db	0
   466  007D9F  00                 	db	0
   467  007DA0  80                 	db	128
   468  007DA1  8A                 	db	138
   469  007DA2  00                 	db	0
   470  007DA3  14                 	db	20
   471  007DA4  41                 	db	65
   472  007DA5  10                 	db	16
   473  007DA6  00                 	db	0
   474  007DA7  01                 	db	1
   475  007DA8  41                 	db	65
   476  007DA9  01                 	db	1
   477  007DAA  00                 	db	0
   478  007DAB  00                 	db	0
   479  007DAC  00                 	db	0
   480  007DAD  00                 	db	0
   481  007DAE  00                 	db	0
   482  007DAF  00                 	db	0
   483  007DB0  E0                 	db	224
   484  007DB1  4B                 	db	75
   485  007DB2  00                 	db	0
   486  007DB3  10                 	db	16
   487  007DB4  C0                 	db	192
   488  007DB5  38                 	db	56
   489  007DB6  00                 	db	0
   490  007DB7  01                 	db	1
   491  007DB8  01                 	db	1
   492  007DB9  80                 	db	128
   493  007DBA  80                 	db	128
   494  007DBB  00                 	db	0
   495  007DBC  00                 	db	0
   496  007DBD  00                 	db	0
   497  007DBE  00                 	db	0
   498  007DBF  01                 	db	1
   499  007DC0  F0                 	db	240
   500  007DC1  34                 	db	52
   501  007DC2  80                 	db	128
   502  007DC3  08                 	db	8
   503  007DC4  00                 	db	0
   504  007DC5  04                 	db	4
   505  007DC6  20                 	db	32
   506  007DC7  02                 	db	2
   507  007DC8  00                 	db	0
   508  007DC9  80                 	db	128
   509  007DCA  40                 	db	64
   510  007DCB  00                 	db	0
   511  007DCC  40                 	db	64
   512  007DCD  1E                 	db	30
   513  007DCE  00                 	db	0
   514  007DCF  0F                 	db	15
   515  007DD0  BE                 	db	190
   516  007DD1  18                 	db	24
   517  007DD2  40                 	db	64
   518  007DD3  09                 	db	9
   519  007DD4  00                 	db	0
   520  007DD5  08                 	db	8
   521  007DD6  50                 	db	80
   522  007DD7  02                 	db	2
   523  007DD8  00                 	db	0
   524  007DD9  C0                 	db	192
   525  007DDA  20                 	db	32
   526  007DDB  00                 	db	0
   527  007DDC  C3                 	db	195
   528  007DDD  E1                 	db	225
   529  007DDE  E0                 	db	224
   530  007DDF  0F                 	db	15
   531  007DE0  9C                 	db	156
   532  007DE1  0C                 	db	12
   533  007DE2  40                 	db	64
   534  007DE3  05                 	db	5
   535  007DE4  80                 	db	128
   536  007DE5  10                 	db	16
   537  007DE6  8E                 	db	142
   538  007DE7  06                 	db	6
   539  007DE8  60                 	db	96
   540  007DE9  80                 	db	128
   541  007DEA  20                 	db	32
   542  007DEB  01                 	db	1
   543  007DEC  5C                 	db	92
   544  007DED  C0                 	db	192
   545  007DEE  40                 	db	64
   546  007DEF  0F                 	db	15
   547  007DF0  F8                 	db	248
   548  007DF1  06                 	db	6
   549  007DF2  40                 	db	64
   550  007DF3  04                 	db	4
   551  007DF4  00                 	db	0
   552  007DF5  19                 	db	25
   553  007DF6  01                 	db	1
   554  007DF7  07                 	db	7
   555  007DF8  00                 	db	0
   556  007DF9  00                 	db	0
   557  007DFA  10                 	db	16
   558  007DFB  06                 	db	6
   559  007DFC  21                 	db	33
   560  007DFD  00                 	db	0
   561  007DFE  80                 	db	128
   562  007DFF  07                 	db	7
   563  007E00  08                 	db	8
   564  007E01  73                 	db	115
   565  007E02  40                 	db	64
   566  007E03  08                 	db	8
   567  007E04  00                 	db	0
   568  007E05  06                 	db	6
   569  007E06  02                 	db	2
   570  007E07  04                 	db	4
   571  007E08  00                 	db	0
   572  007E09  00                 	db	0
   573  007E0A  10                 	db	16
   574  007E0B  09                 	db	9
   575  007E0C  02                 	db	2
   576  007E0D  00                 	db	0
   577  007E0E  70                 	db	112
   578  007E0F  02                 	db	2
   579  007E10  31                 	db	49
   580  007E11  FD                 	db	253
   581  007E12  40                 	db	64
   582  007E13  08                 	db	8
   583  007E14  00                 	db	0
   584  007E15  E0                 	db	224
   585  007E16  14                 	db	20
   586  007E17  07                 	db	7
   587  007E18  00                 	db	0
   588  007E19  00                 	db	0
   589  007E1A  10                 	db	16
   590  007E1B  13                 	db	19
   591  007E1C  00                 	db	0
   592  007E1D  04                 	db	4
   593  007E1E  08                 	db	8
   594  007E1F  02                 	db	2
   595  007E20  FB                 	db	251
   596  007E21  FE                 	db	254
   597  007E22  40                 	db	64
   598  007E23  05                 	db	5
   599  007E24  01                 	db	1
   600  007E25  06                 	db	6
   601  007E26  28                 	db	40
   602  007E27  02                 	db	2
   603  007E28  00                 	db	0
   604  007E29  01                 	db	1
   605  007E2A  C8                 	db	200
   606  007E2B  30                 	db	48
   607  007E2C  08                 	db	8
   608  007E2D  18                 	db	24
   609  007E2E  04                 	db	4
   610  007E2F  01                 	db	1
   611  007E30  77                 	db	119
   612  007E31  BF                 	db	191
   613  007E32  40                 	db	64
   614  007E33  02                 	db	2
   615  007E34  42                 	db	66
   616  007E35  01                 	db	1
   617  007E36  40                 	db	64
   618  007E37  01                 	db	1
   619  007E38  00                 	db	0
   620  007E39  03                 	db	3
   621  007E3A  B8                 	db	184
   622  007E3B  30                 	db	48
   623  007E3C  10                 	db	16
   624  007E3D  70                 	db	112
   625  007E3E  FA                 	db	250
   626  007E3F  00                 	db	0
   627  007E40  2F                 	db	47
   628  007E41  1F                 	db	31
   629  007E42  40                 	db	64
   630  007E43  02                 	db	2
   631  007E44  C4                 	db	196
   632  007E45  00                 	db	0
   633  007E46  C0                 	db	192
   634  007E47  01                 	db	1
   635  007E48  40                 	db	64
   636  007E49  00                 	db	0
   637  007E4A  48                 	db	72
   638  007E4B  38                 	db	56
   639  007E4C  20                 	db	32
   640  007E4D  C3                 	db	195
   641  007E4E  06                 	db	6
   642  007E4F  00                 	db	0
   643  007E50  4E                 	db	78
   644  007E51  1F                 	db	31
   645  007E52  40                 	db	64
   646  007E53  01                 	db	1
   647  007E54  45                 	db	69
   648  007E55  08                 	db	8
   649  007E56  40                 	db	64
   650  007E57  00                 	db	0
   651  007E58  A0                 	db	160
   652  007E59  07                 	db	7
   653  007E5A  AC                 	db	172
   654  007E5B  07                 	db	7
   655  007E5C  E3                 	db	227
   656  007E5D  8C                 	db	140
   657  007E5E  02                 	db	2
   658  007E5F  00                 	db	0
   659  007E60  34                 	db	52
   660  007E61  1E                 	db	30
   661  007E62  20                 	db	32
   662  007E63  00                 	db	0
   663  007E64  55                 	db	85
   664  007E65  1C                 	db	28
   665  007E66  40                 	db	64
   666  007E67  00                 	db	0
   667  007E68  29                 	db	41
   668  007E69  04                 	db	4
   669  007E6A  54                 	db	84
   670  007E6B  00                 	db	0
   671  007E6C  37                 	db	55
   672  007E6D  D0                 	db	208
   673  007E6E  00                 	db	0
   674  007E6F  00                 	db	0
   675  007E70  14                 	db	20
   676  007E71  3C                 	db	60
   677  007E72  20                 	db	32
   678  007E73  00                 	db	0
   679  007E74  51                 	db	81
   680  007E75  26                 	db	38
   681  007E76  40                 	db	64
   682  007E77  00                 	db	0
   683  007E78  29                 	db	41
   684  007E79  88                 	db	136
   685  007E7A  24                 	db	36
   686  007E7B  00                 	db	0
   687  007E7C  38                 	db	56
   688  007E7D  E0                 	db	224
   689  007E7E  00                 	db	0
   690  007E7F  00                 	db	0
   691  007E80  14                 	db	20
   692  007E81  7C                 	db	124
   693  007E82  20                 	db	32
   694  007E83  00                 	db	0
   695  007E84  29                 	db	41
   696  007E85  C3                 	db	195
   697  007E86  40                 	db	64
   698  007E87  00                 	db	0
   699  007E88  19                 	db	25
   700  007E89  48                 	db	72
   701  007E8A  18                 	db	24
   702  007E8B  00                 	db	0
   703  007E8C  00                 	db	0
   704  007E8D  00                 	db	0
   705  007E8E  00                 	db	0
   706  007E8F  00                 	db	0
   707  007E90  14                 	db	20
   708  007E91  7C                 	db	124
   709  007E92  40                 	db	64
   710  007E93  00                 	db	0
   711  007E94  29                 	db	41
   712  007E95  02                 	db	2
   713  007E96  A0                 	db	160
   714  007E97  00                 	db	0
   715  007E98  06                 	db	6
   716  007E99  30                 	db	48
   717  007E9A  00                 	db	0
   718  007E9B  00                 	db	0
   719  007E9C  00                 	db	0
   720  007E9D  00                 	db	0
   721  007E9E  00                 	db	0
   722  007E9F  00                 	db	0
   723  007EA0  0C                 	db	12
   724  007EA1  E4                 	db	228
   725  007EA2  80                 	db	128
   726  007EA3  00                 	db	0
   727  007EA4  2B                 	db	43
   728  007EA5  01                 	db	1
   729  007EA6  A0                 	db	160
   730  007EA7  00                 	db	0
   731  007EA8  00                 	db	0
   732  007EA9  00                 	db	0
   733  007EAA  00                 	db	0
   734  007EAB  00                 	db	0
   735  007EAC  00                 	db	0
   736  007EAD  00                 	db	0
   737  007EAE  00                 	db	0
   738  007EAF  00                 	db	0
   739  007EB0  07                 	db	7
   740  007EB1  03                 	db	3
   741  007EB2  00                 	db	0
   742  007EB3  00                 	db	0
   743  007EB4  1B                 	db	27
   744  007EB5  00                 	db	0
   745  007EB6  A0                 	db	160
   746  007EB7  07                 	db	7
   747  007EB8  F8                 	db	248
   748  007EB9  00                 	db	0
   749  007EBA  00                 	db	0
   750  007EBB  00                 	db	0
   751  007EBC  00                 	db	0
   752  007EBD  00                 	db	0
   753  007EBE  00                 	db	0
   754  007EBF  00                 	db	0
   755  007EC0  00                 	db	0
   756  007EC1  00                 	db	0
   757  007EC2  00                 	db	0
   758  007EC3  00                 	db	0
   759  007EC4  06                 	db	6
   760  007EC5  00                 	db	0
   761  007EC6  40                 	db	64
   762  007EC7  08                 	db	8
   763  007EC8  05                 	db	5
   764  007EC9  F0                 	db	240
   765  007ECA  00                 	db	0
   766  007ECB  00                 	db	0
   767  007ECC  00                 	db	0
   768  007ECD  00                 	db	0
   769  007ECE  00                 	db	0
   770  007ECF  00                 	db	0
   771  007ED0  03                 	db	3
   772  007ED1  F8                 	db	248
   773  007ED2  00                 	db	0
   774  007ED3  00                 	db	0
   775  007ED4  00                 	db	0
   776  007ED5  00                 	db	0
   777  007ED6  00                 	db	0
   778  007ED7  08                 	db	8
   779  007ED8  02                 	db	2
   780  007ED9  20                 	db	32
   781  007EDA  00                 	db	0
   782  007EDB  00                 	db	0
   783  007EDC  00                 	db	0
   784  007EDD  00                 	db	0
   785  007EDE  00                 	db	0
   786  007EDF  00                 	db	0
   787  007EE0  1C                 	db	28
   788  007EE1  04                 	db	4
   789  007EE2  00                 	db	0
   790  007EE3  00                 	db	0
   791  007EE4  37                 	db	55
   792  007EE5  E0                 	db	224
   793  007EE6  00                 	db	0
   794  007EE7  07                 	db	7
   795  007EE8  00                 	db	0
   796  007EE9  40                 	db	64
   797  007EEA  00                 	db	0
   798  007EEB  00                 	db	0
   799  007EEC  00                 	db	0
   800  007EED  00                 	db	0
   801  007EEE  00                 	db	0
   802  007EEF  00                 	db	0
   803  007EF0  6F                 	db	111
   804  007EF1  FB                 	db	251
   805  007EF2  00                 	db	0
   806  007EF3  00                 	db	0
   807  007EF4  5C                 	db	92
   808  007EF5  1C                 	db	28
   809  007EF6  00                 	db	0
   810  007EF7  00                 	db	0
   811  007EF8  C0                 	db	192
   812  007EF9  7E                 	db	126
   813  007EFA  00                 	db	0
   814  007EFB  00                 	db	0
   815  007EFC  9D                 	db	157
   816  007EFD  E0                 	db	224
   817  007EFE  00                 	db	0
   818  007EFF  00                 	db	0
   819  007F00  B0                 	db	176
   820  007F01  04                 	db	4
   821  007F02  C0                 	db	192
   822  007F03  02                 	db	2
   823  007F04  9B                 	db	155
   824  007F05  03                 	db	3
   825  007F06  80                 	db	128
   826  007F07  01                 	db	1
   827  007F08  48                 	db	72
   828  007F09  0E                 	db	14
   829  007F0A  C0                 	db	192
   830  007F0B  01                 	db	1
   831  007F0C  6A                 	db	106
   832  007F0D  3F                 	db	63
   833  007F0E  00                 	db	0
   834  007F0F  01                 	db	1
   835  007F10  40                 	db	64
   836  007F11  03                 	db	3
   837  007F12  30                 	db	48
   838  007F13  05                 	db	5
   839  007F14  27                 	db	39
   840  007F15  80                 	db	128
   841  007F16  40                 	db	64
   842  007F17  02                 	db	2
   843  007F18  88                 	db	136
   844  007F19  19                 	db	25
   845  007F1A  40                 	db	64
   846  007F1B  02                 	db	2
   847  007F1C  07                 	db	7
   848  007F1D  E0                 	db	224
   849  007F1E  C0                 	db	192
   850  007F1F  02                 	db	2
   851  007F20  83                 	db	131
   852  007F21  F0                 	db	240
   853  007F22  E8                 	db	232
   854  007F23  04                 	db	4
   855  007F24  01                 	db	1
   856  007F25  80                 	db	128
   857  007F26  20                 	db	32
   858  007F27  02                 	db	2
   859  007F28  08                 	db	8
   860  007F29  10                 	db	16
   861  007F2A  40                 	db	64
   862  007F2B  7C                 	db	124
   863  007F2C  00                 	db	0
   864  007F2D  C0                 	db	192
   865  007F2E  80                 	db	128
   866  007F2F  05                 	db	5
   867  007F30  04                 	db	4
   868  007F31  0C                 	db	12
   869  007F32  14                 	db	20
   870  007F33  08                 	db	8
   871  007F34  00                 	db	0
   872  007F35  30                 	db	48
   873  007F36  10                 	db	16
   874  007F37  02                 	db	2
   875  007F38  00                 	db	0
   876  007F39  58                 	db	88
   877  007F3A  80                 	db	128
   878  007F3B  20                 	db	32
   879  007F3C  2D                 	db	45
   880  007F3D  81                 	db	129
   881  007F3E  70                 	db	112
   882  007F3F  04                 	db	4
   883  007F40  08                 	db	8
   884  007F41  02                 	db	2
   885  007F42  0C                 	db	12
   886  007F43  19                 	db	25
   887  007F44  80                 	db	128
   888  007F45  18                 	db	24
   889  007F46  08                 	db	8
   890  007F47  02                 	db	2
   891  007F48  6E                 	db	110
   892  007F49  88                 	db	136
   893  007F4A  80                 	db	128
   894  007F4B  10                 	db	16
   895  007F4C  61                 	db	97
   896  007F4D  0F                 	db	15
   897  007F4E  88                 	db	136
   898  007F4F  08                 	db	8
   899  007F50  00                 	db	0
   900  007F51  08                 	db	8
   901  007F52  02                 	db	2
   902  007F53  18                 	db	24
   903  007F54  00                 	db	0
   904  007F55  01                 	db	1
   905  007F56  04                 	db	4
   906  007F57  01                 	db	1
   907  007F58  D1                 	db	209
   908  007F59  04                 	db	4
   909  007F5A  80                 	db	128
   910  007F5B  0D                 	db	13
   911  007F5C  82                 	db	130
   912  007F5D  0D                 	db	13
   913  007F5E  04                 	db	4
   914  007F5F  13                 	db	19
   915  007F60  18                 	db	24
   916  007F61  08                 	db	8
   917  007F62  25                 	db	37
   918  007F63  1C                 	db	28
   919  007F64  30                 	db	48
   920  007F65  00                 	db	0
   921  007F66  98                 	db	152
   922  007F67  00                 	db	0
   923  007F68  B0                 	db	176
   924  007F69  C4                 	db	196
   925  007F6A  80                 	db	128
   926  007F6B  02                 	db	2
   927  007F6C  00                 	db	0
   928  007F6D  0A                 	db	10
   929  007F6E  34                 	db	52
   930  007F6F  38                 	db	56
   931  007F70  7E                 	db	126
   932  007F71  1C                 	db	28
   933  007F72  45                 	db	69
   934  007F73  08                 	db	8
   935  007F74  F8                 	db	248
   936  007F75  00                 	db	0
   937  007F76  70                 	db	112
   938  007F77  00                 	db	0
   939  007F78  71                 	db	113
   940  007F79  02                 	db	2
   941  007F7A  80                 	db	128
   942  007F7B  02                 	db	2
   943  007F7C  C0                 	db	192
   944  007F7D  1C                 	db	28
   945  007F7E  1A                 	db	26
   946  007F7F  41                 	db	65
   947  007F80  FF                 	db	255
   948  007F81  F8                 	db	248
   949  007F82  8A                 	db	138
   950  007F83  0F                 	db	15
   951  007F84  3F                 	db	63
   952  007F85  02                 	db	2
   953  007F86  B0                 	db	176
   954  007F87  00                 	db	0
   955  007F88  52                 	db	82
   956  007F89  01                 	db	1
   957  007F8A  00                 	db	0
   958  007F8B  01                 	db	1
   959  007F8C  20                 	db	32
   960  007F8D  10                 	db	16
   961  007F8E  32                 	db	50
   962  007F8F  47                 	db	71
   963  007F90  CF                 	db	207
   964  007F91  F2                 	db	242
   965  007F92  14                 	db	20
   966  007F93  00                 	db	0
   967  007F94  1C                 	db	28
   968  007F95  DC                 	db	220
   969  007F96  E0                 	db	224
   970  007F97  00                 	db	0
   971  007F98  52                 	db	82
   972  007F99  21                 	db	33
   973  007F9A  00                 	db	0
   974  007F9B  01                 	db	1
   975  007F9C  20                 	db	32
   976  007F9D  03                 	db	3
   977  007F9E  FA                 	db	250
   978  007F9F  3F                 	db	63
   979  007FA0  07                 	db	7
   980  007FA1  88                 	db	136
   981  007FA2  78                 	db	120
   982  007FA3  00                 	db	0
   983  007FA4  10                 	db	16
   984  007FA5  31                 	db	49
   985  007FA6  80                 	db	128
   986  007FA7  00                 	db	0
   987  007FA8  31                 	db	49
   988  007FA9  C1                 	db	193
   989  007FAA  00                 	db	0
   990  007FAB  00                 	db	0
   991  007FAC  20                 	db	32
   992  007FAD  04                 	db	4
   993  007FAE  1C                 	db	28
   994  007FAF  00                 	db	0
   995  007FB0  3D                 	db	61
   996  007FB1  E1                 	db	225
   997  007FB2  A0                 	db	160
   998  007FB3  00                 	db	0
   999  007FB4  0C                 	db	12
  1000  007FB5  0E                 	db	14
  1001  007FB6  00                 	db	0
  1002  007FB7  00                 	db	0
  1003  007FB8  08                 	db	8
  1004  007FB9  01                 	db	1
  1005  007FBA  00                 	db	0
  1006  007FBB  00                 	db	0
  1007  007FBC  28                 	db	40
  1008  007FBD  08                 	db	8
  1009  007FBE  00                 	db	0
  1010  007FBF  00                 	db	0
  1011  007FC0  40                 	db	64
  1012  007FC1  0E                 	db	14
  1013  007FC2  C0                 	db	192
  1014  007FC3  00                 	db	0
  1015  007FC4  02                 	db	2
  1016  007FC5  70                 	db	112
  1017  007FC6  00                 	db	0
  1018  007FC7  00                 	db	0
  1019  007FC8  07                 	db	7
  1020  007FC9  02                 	db	2
  1021  007FCA  00                 	db	0
  1022  007FCB  00                 	db	0
  1023  007FCC  18                 	db	24
  1024  007FCD  90                 	db	144
  1025  007FCE  00                 	db	0
  1026  007FCF  00                 	db	0
  1027  007FD0  30                 	db	48
  1028  007FD1  73                 	db	115
  1029  007FD2  00                 	db	0
  1030  007FD3  00                 	db	0
  1031  007FD4  01                 	db	1
  1032  007FD5  80                 	db	128
  1033  007FD6  00                 	db	0
  1034  007FD7  00                 	db	0
  1035  007FD8  04                 	db	4
  1036  007FD9  E2                 	db	226
  1037  007FDA  00                 	db	0
  1038  007FDB  00                 	db	0
  1039  007FDC  09                 	db	9
  1040  007FDD  50                 	db	80
  1041  007FDE  00                 	db	0
  1042  007FDF  00                 	db	0
  1043  007FE0  0F                 	db	15
  1044  007FE1  FC                 	db	252
  1045  007FE2  00                 	db	0
  1046  007FE3  00                 	db	0
  1047  007FE4  00                 	db	0
  1048  007FE5  00                 	db	0
  1049  007FE6  00                 	db	0
  1050  007FE7  00                 	db	0
  1051  007FE8  05                 	db	5
  1052  007FE9  12                 	db	18
  1053  007FEA  00                 	db	0
  1054  007FEB  00                 	db	0
  1055  007FEC  06                 	db	6
  1056  007FED  20                 	db	32
  1057  007FEE  00                 	db	0
  1058  007FEF  00                 	db	0
  1059  007FF0  00                 	db	0
  1060  007FF1  00                 	db	0
  1061  007FF2  00                 	db	0
  1062  007FF3  00                 	db	0
  1063  007FF4  00                 	db	0
  1064  007FF5  00                 	db	0
  1065  007FF6  00                 	db	0
  1066  007FF7  00                 	db	0
  1067  007FF8  06                 	db	6
  1068  007FF9  0C                 	db	12
  1069  007FFA  00                 	db	0
  1070  007FFB  00                 	db	0
  1071  007FFC  00                 	db	0
  1072  007FFD  00                 	db	0
  1073  007FFE  00                 	db	0
  1074  007FFF                     __end_of_MH:
  1075                           	opt stack 0
  1076  0000                     _ADCON0	set	4034
  1077  0000                     _ADCON1	set	4033
  1078  0000                     _ADCON1bits	set	4033
  1079  0000                     _LATB	set	3978
  1080  0000                     _LATD	set	3980
  1081  0000                     _LATDbits	set	3980
  1082  0000                     _TRISB	set	3987
  1083  0000                     _TRISD	set	3989
  1084                           
  1085                           ; #config settings
  1086  007FFF  00                 	db	0	; dummy byte at the end
  1087  0000                     
  1088                           	psect	cinit
  1089  0079E2                     __pcinit:
  1090                           	opt stack 0
  1091  0079E2                     start_initialization:
  1092                           	opt stack 0
  1093  0079E2                     __initialization:
  1094                           	opt stack 0
  1095                           
  1096                           ; Initialize objects allocated to COMRAM (16 bytes)
  1097                           ; load TBLPTR registers with __pidataCOMRAM
  1098  0079E2  0E48               	movlw	low __pidataCOMRAM
  1099  0079E4  6EF6               	movwf	tblptrl,c
  1100  0079E6  0E79               	movlw	high __pidataCOMRAM
  1101  0079E8  6EF7               	movwf	tblptrh,c
  1102  0079EA  0E00               	movlw	low (__pidataCOMRAM shr (0+16))
  1103  0079EC  6EF8               	movwf	tblptru,c
  1104  0079EE  EE00  F001         	lfsr	0,__pdataCOMRAM
  1105  0079F2  EE10 F010          	lfsr	1,16
  1106  0079F6                     copy_data0:
  1107  0079F6  0009               	tblrd		*+
  1108  0079F8  CFF5 FFEE          	movff	tablat,postinc0
  1109  0079FC  50E5               	movf	postdec1,w,c
  1110  0079FE  50E1               	movf	fsr1l,w,c
  1111  007A00  E1FA               	bnz	copy_data0
  1112  007A02                     end_of_initialization:
  1113                           	opt stack 0
  1114  007A02                     __end_of__initialization:
  1115                           	opt stack 0
  1116  007A02  0E00               	movlw	low (__Lmediumconst shr (0+16))
  1117  007A04  6EF8               	movwf	tblptru,c
  1118  007A06  0100               	movlb	0
  1119  007A08  EFB2  F03D         	goto	_main	;jump to C main() function
  1120                           tblptru	equ	0xFF8
  1121                           tblptrh	equ	0xFF7
  1122                           tblptrl	equ	0xFF6
  1123                           tablat	equ	0xFF5
  1124                           postinc0	equ	0xFEE
  1125                           postdec1	equ	0xFE5
  1126                           fsr1l	equ	0xFE1
  1127                           
  1128                           	psect	dataCOMRAM
  1129  000001                     __pdataCOMRAM:
  1130                           	opt stack 0
  1131  000001                     _message:
  1132                           	opt stack 0
  1133  000001                     	ds	16
  1134                           tblptru	equ	0xFF8
  1135                           tblptrh	equ	0xFF7
  1136                           tblptrl	equ	0xFF6
  1137                           tablat	equ	0xFF5
  1138                           postinc0	equ	0xFEE
  1139                           postdec1	equ	0xFE5
  1140                           fsr1l	equ	0xFE1
  1141                           
  1142                           	psect	cstackCOMRAM
  1143  000011                     __pcstackCOMRAM:
  1144                           	opt stack 0
  1145  000011                     Send_Command@command:
  1146                           	opt stack 0
  1147  000011                     Send_Data@data:
  1148                           	opt stack 0
  1149  000011                     delay_ms@n:
  1150                           	opt stack 0
  1151                           
  1152                           ; 4 bytes @ 0x0
  1153  000011                     	ds	1
  1154  000012                     ??_Initialize:
  1155  000012                     Clear_Graphics@x:
  1156                           	opt stack 0
  1157  000012                     Image_Graphics@image:
  1158                           	opt stack 0
  1159  000012                     Write_String@Y:
  1160                           	opt stack 0
  1161                           
  1162                           ; 2 bytes @ 0x1
  1163  000012                     	ds	1
  1164  000013                     Clear_Graphics@y:
  1165                           	opt stack 0
  1166                           
  1167                           ; 1 bytes @ 0x2
  1168  000013                     	ds	1
  1169  000014                     Image_Graphics@x:
  1170                           	opt stack 0
  1171  000014                     Write_String@string:
  1172                           	opt stack 0
  1173                           
  1174                           ; 2 bytes @ 0x3
  1175  000014                     	ds	1
  1176  000015                     ??_delay_ms:
  1177  000015                     Image_Graphics@y:
  1178                           	opt stack 0
  1179                           
  1180                           ; 1 bytes @ 0x4
  1181  000015                     	ds	1
  1182  000016                     tblptru	equ	0xFF8
  1183                           tblptrh	equ	0xFF7
  1184                           tblptrl	equ	0xFF6
  1185                           tablat	equ	0xFF5
  1186                           postinc0	equ	0xFEE
  1187                           postdec1	equ	0xFE5
  1188                           fsr1l	equ	0xFE1
  1189                           
  1190                           ; 0 bytes @ 0x5
  1191 ;;
  1192 ;;Main: autosize = 0, tempsize = 0, incstack = 0, save=0
  1193 ;;
  1194 ;; *************** function _main *****************
  1195 ;; Defined at:
  1196 ;;		line 39 in file "main.c"
  1197 ;; Parameters:    Size  Location     Type
  1198 ;;		None
  1199 ;; Auto vars:     Size  Location     Type
  1200 ;;		None
  1201 ;; Return value:  Size  Location     Type
  1202 ;;		None               void
  1203 ;; Registers used:
  1204 ;;		wreg, fsr2l, fsr2h, status,2, status,0, tblptrl, tblptrh, tblptru, cstack
  1205 ;; Tracked objects:
  1206 ;;		On entry : 0/0
  1207 ;;		On exit  : 0/0
  1208 ;;		Unchanged: 0/0
  1209 ;; Data sizes:     COMRAM   BANK0   BANK1   BANK2   BANK3   BANK4   BANK5   BANK6   BANK7
  1210 ;;      Params:         0       0       0       0       0       0       0       0       0
  1211 ;;      Locals:         0       0       0       0       0       0       0       0       0
  1212 ;;      Temps:          0       0       0       0       0       0       0       0       0
  1213 ;;      Totals:         0       0       0       0       0       0       0       0       0
  1214 ;;Total ram usage:        0 bytes
  1215 ;; Hardware stack levels required when called:    2
  1216 ;; This function calls:
  1217 ;;		_Clear_Graphics
  1218 ;;		_Image_Graphics
  1219 ;;		_Initialize
  1220 ;;		_Send_Command
  1221 ;;		_Send_Data
  1222 ;;		_Set_GraphicMode
  1223 ;;		_Write_String
  1224 ;;		_delay_ms
  1225 ;; This function is called by:
  1226 ;;		Startup code after reset
  1227 ;; This function uses a non-reentrant model
  1228 ;;
  1229                           
  1230                           	psect	text0
  1231  007B64                     __ptext0:
  1232                           	opt stack 0
  1233  007B64                     _main:
  1234                           	opt stack 29
  1235                           
  1236                           ;main.c: 40: ADCON0=0x00;
  1237                           
  1238                           ;incstack = 0
  1239  007B64  0E00               	movlw	0
  1240  007B66  6EC2               	movwf	4034,c	;volatile
  1241                           
  1242                           ;main.c: 41: ADCON1=0x00;
  1243  007B68  0E00               	movlw	0
  1244  007B6A  6EC1               	movwf	4033,c	;volatile
  1245                           
  1246                           ;main.c: 42: ADCON1bits.PCFG=0x0F;
  1247  007B6C  80C1               	bsf	4033,0,c	;volatile
  1248  007B6E  82C1               	bsf	4033,1,c	;volatile
  1249  007B70  84C1               	bsf	4033,2,c	;volatile
  1250  007B72  86C1               	bsf	4033,3,c	;volatile
  1251                           
  1252                           ;main.c: 44: TRISB = 0x00;
  1253  007B74  0E00               	movlw	0
  1254  007B76  6E93               	movwf	3987,c	;volatile
  1255                           
  1256                           ;main.c: 45: TRISD = 0x00;
  1257  007B78  0E00               	movlw	0
  1258  007B7A  6E95               	movwf	3989,c	;volatile
  1259                           
  1260                           ;main.c: 46: LATB=0;
  1261  007B7C  0E00               	movlw	0
  1262  007B7E  6E8A               	movwf	3978,c	;volatile
  1263                           
  1264                           ;main.c: 47: LATD=0;
  1265  007B80  0E00               	movlw	0
  1266  007B82  6E8C               	movwf	3980,c	;volatile
  1267                           
  1268                           ;main.c: 48: LATDbits.LATD3 = 0;
  1269  007B84  968C               	bcf	3980,3,c	;volatile
  1270                           
  1271                           ;main.c: 49: Initialize();
  1272  007B86  EC74  F03D         	call	_Initialize	;wreg free
  1273                           
  1274                           ;main.c: 50: Send_Command(0x80);
  1275  007B8A  0E80               	movlw	128
  1276  007B8C  ECAC  F03C         	call	_Send_Command
  1277                           
  1278                           ;main.c: 51: Send_Data(0x03);
  1279  007B90  0E03               	movlw	3
  1280  007B92  ECC9  F03C         	call	_Send_Data
  1281                           
  1282                           ;main.c: 52: Send_Data(0x04);
  1283  007B96  0E04               	movlw	4
  1284  007B98  ECC9  F03C         	call	_Send_Data
  1285                           
  1286                           ;main.c: 53: Send_Data(0x05);
  1287  007B9C  0E05               	movlw	5
  1288  007B9E  ECC9  F03C         	call	_Send_Data
  1289                           
  1290                           ;main.c: 54: Send_Data(0x06);
  1291  007BA2  0E06               	movlw	6
  1292  007BA4  ECC9  F03C         	call	_Send_Data
  1293                           
  1294                           ;main.c: 55: Write_String(0x90, message);
  1295  007BA8  0E00               	movlw	0
  1296  007BAA  6E13               	movwf	Write_String@Y+1,c
  1297  007BAC  0E90               	movlw	144
  1298  007BAE  6E12               	movwf	Write_String@Y,c
  1299  007BB0  0E01               	movlw	low _message
  1300  007BB2  6E14               	movwf	Write_String@string,c
  1301  007BB4  0E00               	movlw	high _message
  1302  007BB6  6E15               	movwf	Write_String@string+1,c
  1303  007BB8  ECDC  F03C         	call	_Write_String	;wreg free
  1304                           
  1305                           ;main.c: 59: delay_ms(500);
  1306  007BBC  0EF4               	movlw	244
  1307  007BBE  6E11               	movwf	delay_ms@n,c
  1308  007BC0  0E01               	movlw	1
  1309  007BC2  6E12               	movwf	delay_ms@n+1,c
  1310  007BC4  0E00               	movlw	0
  1311  007BC6  6E13               	movwf	delay_ms@n+2,c
  1312  007BC8  0E00               	movlw	0
  1313  007BCA  6E14               	movwf	delay_ms@n+3,c
  1314  007BCC  EC06  F03D         	call	_delay_ms	;wreg free
  1315                           
  1316                           ;main.c: 60: Initialize();
  1317  007BD0  EC74  F03D         	call	_Initialize	;wreg free
  1318                           
  1319                           ;main.c: 61: Set_GraphicMode();
  1320  007BD4  ECBA  F03C         	call	_Set_GraphicMode	;wreg free
  1321                           
  1322                           ;main.c: 62: Clear_Graphics();
  1323  007BD8  EC21  F03D         	call	_Clear_Graphics	;wreg free
  1324  007BDC                     l983:
  1325                           
  1326                           ;main.c: 67: Image_Graphics(MH);
  1327  007BDC  0EFF               	movlw	low _MH
  1328  007BDE  6E12               	movwf	Image_Graphics@image,c
  1329  007BE0  0E7B               	movlw	high _MH
  1330  007BE2  6E13               	movwf	Image_Graphics@image+1,c
  1331  007BE4  EC47  F03D         	call	_Image_Graphics	;wreg free
  1332                           
  1333                           ;main.c: 68: delay_ms(500);
  1334  007BE8  0EF4               	movlw	244
  1335  007BEA  6E11               	movwf	delay_ms@n,c
  1336  007BEC  0E01               	movlw	1
  1337  007BEE  6E12               	movwf	delay_ms@n+1,c
  1338  007BF0  0E00               	movlw	0
  1339  007BF2  6E13               	movwf	delay_ms@n+2,c
  1340  007BF4  0E00               	movlw	0
  1341  007BF6  6E14               	movwf	delay_ms@n+3,c
  1342  007BF8  EC06  F03D         	call	_delay_ms	;wreg free
  1343  007BFC  D7EF               	goto	l983
  1344  007BFE                     __end_of_main:
  1345                           	opt stack 0
  1346                           tblptru	equ	0xFF8
  1347                           tblptrh	equ	0xFF7
  1348                           tblptrl	equ	0xFF6
  1349                           tablat	equ	0xFF5
  1350                           postinc0	equ	0xFEE
  1351                           postdec1	equ	0xFE5
  1352                           fsr1l	equ	0xFE1
  1353                           
  1354 ;; *************** function _delay_ms *****************
  1355 ;; Defined at:
  1356 ;;		line 146 in file "Alteri.h"
  1357 ;; Parameters:    Size  Location     Type
  1358 ;;  n               4    0[COMRAM] long 
  1359 ;; Auto vars:     Size  Location     Type
  1360 ;;		None
  1361 ;; Return value:  Size  Location     Type
  1362 ;;		None               void
  1363 ;; Registers used:
  1364 ;;		wreg, status,2, status,0
  1365 ;; Tracked objects:
  1366 ;;		On entry : 0/0
  1367 ;;		On exit  : 0/0
  1368 ;;		Unchanged: 0/0
  1369 ;; Data sizes:     COMRAM   BANK0   BANK1   BANK2   BANK3   BANK4   BANK5   BANK6   BANK7
  1370 ;;      Params:         4       0       0       0       0       0       0       0       0
  1371 ;;      Locals:         0       0       0       0       0       0       0       0       0
  1372 ;;      Temps:          1       0       0       0       0       0       0       0       0
  1373 ;;      Totals:         5       0       0       0       0       0       0       0       0
  1374 ;;Total ram usage:        5 bytes
  1375 ;; Hardware stack levels used:    1
  1376 ;; This function calls:
  1377 ;;		Nothing
  1378 ;; This function is called by:
  1379 ;;		_main
  1380 ;; This function uses a non-reentrant model
  1381 ;;
  1382                           
  1383                           	psect	text1
  1384  007A0C                     __ptext1:
  1385                           	opt stack 0
  1386  007A0C                     _delay_ms:
  1387                           	opt stack 30
  1388                           
  1389                           ;Alteri.h: 148: while(n-- !=0){
  1390                           
  1391                           ;incstack = 0
  1392  007A0C  D008               	goto	l911
  1393  007A0E                     l909:
  1394                           
  1395                           ;Alteri.h: 149: _delay((unsigned long)((1)*(48000000/4000.0)));
  1396  007A0E  0E10               	movlw	16
  1397  007A10  6E15               	movwf	??_delay_ms& (0+255),c
  1398  007A12  0E94               	movlw	148
  1399  007A14                     u257:
  1400  007A14  2EE8               	decfsz	wreg,f,c
  1401  007A16  D7FE               	goto	u257
  1402  007A18  2E15               	decfsz	??_delay_ms& (0+255),f,c
  1403  007A1A  D7FC               	goto	u257
  1404  007A1C  D000               	nop2	
  1405  007A1E                     l911:
  1406  007A1E  0EFF               	movlw	255
  1407  007A20  2611               	addwf	delay_ms@n,f,c
  1408  007A22  0EFF               	movlw	255
  1409  007A24  2212               	addwfc	delay_ms@n+1,f,c
  1410  007A26  0EFF               	movlw	255
  1411  007A28  2213               	addwfc	delay_ms@n+2,f,c
  1412  007A2A  0EFF               	movlw	255
  1413  007A2C  2214               	addwfc	delay_ms@n+3,f,c
  1414  007A2E  2811               	incf	delay_ms@n,w,c
  1415  007A30  E1EE               	bnz	l909
  1416  007A32  2812               	incf	delay_ms@n+1,w,c
  1417  007A34  E1EC               	bnz	l909
  1418  007A36  2813               	incf	delay_ms@n+2,w,c
  1419  007A38  E1EA               	bnz	l909
  1420  007A3A  2814               	incf	delay_ms@n+3,w,c
  1421  007A3C  B4D8               	btfsc	status,2,c
  1422  007A3E  0012               	return	
  1423  007A40  D7E6               	goto	l909
  1424  007A42                     __end_of_delay_ms:
  1425                           	opt stack 0
  1426                           tblptru	equ	0xFF8
  1427                           tblptrh	equ	0xFF7
  1428                           tblptrl	equ	0xFF6
  1429                           tablat	equ	0xFF5
  1430                           postinc0	equ	0xFEE
  1431                           wreg	equ	0xFE8
  1432                           postdec1	equ	0xFE5
  1433                           fsr1l	equ	0xFE1
  1434                           status	equ	0xFD8
  1435                           
  1436 ;; *************** function _Write_String *****************
  1437 ;; Defined at:
  1438 ;;		line 176 in file "main.c"
  1439 ;; Parameters:    Size  Location     Type
  1440 ;;  Y               2    1[COMRAM] unsigned int 
  1441 ;;  string          2    3[COMRAM] PTR unsigned char 
  1442 ;;		 -> message(16), 
  1443 ;; Auto vars:     Size  Location     Type
  1444 ;;		None
  1445 ;; Return value:  Size  Location     Type
  1446 ;;		None               void
  1447 ;; Registers used:
  1448 ;;		wreg, fsr2l, fsr2h, status,2, status,0, cstack
  1449 ;; Tracked objects:
  1450 ;;		On entry : 0/0
  1451 ;;		On exit  : 0/0
  1452 ;;		Unchanged: 0/0
  1453 ;; Data sizes:     COMRAM   BANK0   BANK1   BANK2   BANK3   BANK4   BANK5   BANK6   BANK7
  1454 ;;      Params:         4       0       0       0       0       0       0       0       0
  1455 ;;      Locals:         0       0       0       0       0       0       0       0       0
  1456 ;;      Temps:          0       0       0       0       0       0       0       0       0
  1457 ;;      Totals:         4       0       0       0       0       0       0       0       0
  1458 ;;Total ram usage:        4 bytes
  1459 ;; Hardware stack levels used:    1
  1460 ;; Hardware stack levels required when called:    1
  1461 ;; This function calls:
  1462 ;;		_Send_Command
  1463 ;;		_Send_Data
  1464 ;; This function is called by:
  1465 ;;		_main
  1466 ;; This function uses a non-reentrant model
  1467 ;;
  1468                           
  1469                           	psect	text2
  1470  0079B8                     __ptext2:
  1471                           	opt stack 0
  1472  0079B8                     _Write_String:
  1473                           	opt stack 29
  1474                           
  1475                           ;main.c: 177: Send_Command(Y);
  1476                           
  1477                           ;incstack = 0
  1478  0079B8  5012               	movf	Write_String@Y,w,c
  1479  0079BA  ECAC  F03C         	call	_Send_Command
  1480                           
  1481                           ;main.c: 178: while(*string!= '\0'){
  1482  0079BE  D009               	goto	l919
  1483  0079C0                     l915:
  1484                           
  1485                           ;main.c: 179: Send_Data(*string++);
  1486  0079C0  C014  FFD9         	movff	Write_String@string,fsr2l
  1487  0079C4  C015  FFDA         	movff	Write_String@string+1,fsr2h
  1488  0079C8  50DF               	movf	indf2,w,c
  1489  0079CA  ECC9  F03C         	call	_Send_Data
  1490  0079CE  4A14               	infsnz	Write_String@string,f,c
  1491  0079D0  2A15               	incf	Write_String@string+1,f,c
  1492  0079D2                     l919:
  1493  0079D2  C014  FFD9         	movff	Write_String@string,fsr2l
  1494  0079D6  C015  FFDA         	movff	Write_String@string+1,fsr2h
  1495  0079DA  50DF               	movf	indf2,w,c
  1496  0079DC  B4D8               	btfsc	status,2,c
  1497  0079DE  0012               	return	
  1498  0079E0  D7EF               	goto	l915
  1499  0079E2                     __end_of_Write_String:
  1500                           	opt stack 0
  1501                           tblptru	equ	0xFF8
  1502                           tblptrh	equ	0xFF7
  1503                           tblptrl	equ	0xFF6
  1504                           tablat	equ	0xFF5
  1505                           postinc0	equ	0xFEE
  1506                           wreg	equ	0xFE8
  1507                           postdec1	equ	0xFE5
  1508                           fsr1l	equ	0xFE1
  1509                           indf2	equ	0xFDF
  1510                           fsr2h	equ	0xFDA
  1511                           fsr2l	equ	0xFD9
  1512                           status	equ	0xFD8
  1513                           
  1514 ;; *************** function _Set_GraphicMode *****************
  1515 ;; Defined at:
  1516 ;;		line 117 in file "main.c"
  1517 ;; Parameters:    Size  Location     Type
  1518 ;;		None
  1519 ;; Auto vars:     Size  Location     Type
  1520 ;;		None
  1521 ;; Return value:  Size  Location     Type
  1522 ;;		None               void
  1523 ;; Registers used:
  1524 ;;		wreg, cstack
  1525 ;; Tracked objects:
  1526 ;;		On entry : 0/0
  1527 ;;		On exit  : 0/0
  1528 ;;		Unchanged: 0/0
  1529 ;; Data sizes:     COMRAM   BANK0   BANK1   BANK2   BANK3   BANK4   BANK5   BANK6   BANK7
  1530 ;;      Params:         0       0       0       0       0       0       0       0       0
  1531 ;;      Locals:         0       0       0       0       0       0       0       0       0
  1532 ;;      Temps:          0       0       0       0       0       0       0       0       0
  1533 ;;      Totals:         0       0       0       0       0       0       0       0       0
  1534 ;;Total ram usage:        0 bytes
  1535 ;; Hardware stack levels used:    1
  1536 ;; Hardware stack levels required when called:    1
  1537 ;; This function calls:
  1538 ;;		_Send_Command
  1539 ;; This function is called by:
  1540 ;;		_main
  1541 ;; This function uses a non-reentrant model
  1542 ;;
  1543                           
  1544                           	psect	text3
  1545  007974                     __ptext3:
  1546                           	opt stack 0
  1547  007974                     _Set_GraphicMode:
  1548                           	opt stack 29
  1549                           
  1550                           ;main.c: 118: Send_Command(0b00110100);
  1551                           
  1552                           ;incstack = 0
  1553  007974  0E34               	movlw	52
  1554  007976  ECAC  F03C         	call	_Send_Command
  1555                           
  1556                           ;main.c: 119: _delay((unsigned long)((100)*(48000000/4000000.0)));
  1557  00797A  0EF0               	movlw	240
  1558  00797C                     u267:
  1559  00797C  D000               	nop2	
  1560  00797E  2EE8               	decfsz	wreg,f,c
  1561  007980  D7FD               	goto	u267
  1562                           
  1563                           ;main.c: 120: Send_Command(0b00110110);
  1564  007982  0E36               	movlw	54
  1565  007984  ECAC  F03C         	call	_Send_Command
  1566                           
  1567                           ;main.c: 121: _delay((unsigned long)((100)*(48000000/4000000.0)));
  1568  007988  0EF0               	movlw	240
  1569  00798A                     u277:
  1570  00798A  D000               	nop2	
  1571  00798C  2EE8               	decfsz	wreg,f,c
  1572  00798E  D7FD               	goto	u277
  1573  007990  0012               	return		;funcret
  1574  007992                     __end_of_Set_GraphicMode:
  1575                           	opt stack 0
  1576                           tblptru	equ	0xFF8
  1577                           tblptrh	equ	0xFF7
  1578                           tblptrl	equ	0xFF6
  1579                           tablat	equ	0xFF5
  1580                           postinc0	equ	0xFEE
  1581                           wreg	equ	0xFE8
  1582                           postdec1	equ	0xFE5
  1583                           fsr1l	equ	0xFE1
  1584                           indf2	equ	0xFDF
  1585                           fsr2h	equ	0xFDA
  1586                           fsr2l	equ	0xFD9
  1587                           status	equ	0xFD8
  1588                           
  1589 ;; *************** function _Initialize *****************
  1590 ;; Defined at:
  1591 ;;		line 73 in file "main.c"
  1592 ;; Parameters:    Size  Location     Type
  1593 ;;		None
  1594 ;; Auto vars:     Size  Location     Type
  1595 ;;		None
  1596 ;; Return value:  Size  Location     Type
  1597 ;;		None               void
  1598 ;; Registers used:
  1599 ;;		wreg, cstack
  1600 ;; Tracked objects:
  1601 ;;		On entry : 0/0
  1602 ;;		On exit  : 0/0
  1603 ;;		Unchanged: 0/0
  1604 ;; Data sizes:     COMRAM   BANK0   BANK1   BANK2   BANK3   BANK4   BANK5   BANK6   BANK7
  1605 ;;      Params:         0       0       0       0       0       0       0       0       0
  1606 ;;      Locals:         0       0       0       0       0       0       0       0       0
  1607 ;;      Temps:          1       0       0       0       0       0       0       0       0
  1608 ;;      Totals:         1       0       0       0       0       0       0       0       0
  1609 ;;Total ram usage:        1 bytes
  1610 ;; Hardware stack levels used:    1
  1611 ;; Hardware stack levels required when called:    1
  1612 ;; This function calls:
  1613 ;;		_Send_Command
  1614 ;; This function is called by:
  1615 ;;		_main
  1616 ;; This function uses a non-reentrant model
  1617 ;;
  1618                           
  1619                           	psect	text4
  1620  007AE8                     __ptext4:
  1621                           	opt stack 0
  1622  007AE8                     _Initialize:
  1623                           	opt stack 29
  1624                           
  1625                           ;main.c: 75: LATDbits.LATD1=0;
  1626                           
  1627                           ;incstack = 0
  1628  007AE8  928C               	bcf	3980,1,c	;volatile
  1629                           
  1630                           ;main.c: 76: LATDbits.LATD0=0;
  1631  007AEA  908C               	bcf	3980,0,c	;volatile
  1632                           
  1633                           ;main.c: 77: _delay((unsigned long)((400)*(48000000/4000000.0)));
  1634  007AEC  0E07               	movlw	7
  1635  007AEE  6E12               	movwf	??_Initialize& (0+255),c
  1636  007AF0  0E3A               	movlw	58
  1637  007AF2                     u287:
  1638  007AF2  2EE8               	decfsz	wreg,f,c
  1639  007AF4  D7FE               	goto	u287
  1640  007AF6  2E12               	decfsz	??_Initialize& (0+255),f,c
  1641  007AF8  D7FC               	goto	u287
  1642  007AFA  D000               	nop2	
  1643                           
  1644                           ;main.c: 78: LATDbits.LATD3 = 1;
  1645  007AFC  868C               	bsf	3980,3,c	;volatile
  1646                           
  1647                           ;main.c: 79: _delay((unsigned long)((10)*(48000000/4000.0)));
  1648  007AFE  0E9C               	movlw	156
  1649  007B00  6E12               	movwf	??_Initialize& (0+255),c
  1650  007B02  0ED7               	movlw	215
  1651  007B04                     u297:
  1652  007B04  2EE8               	decfsz	wreg,f,c
  1653  007B06  D7FE               	goto	u297
  1654  007B08  2E12               	decfsz	??_Initialize& (0+255),f,c
  1655  007B0A  D7FC               	goto	u297
  1656  007B0C  F000               	nop	
  1657                           
  1658                           ;main.c: 80: Send_Command(0b00110000) ;
  1659  007B0E  0E30               	movlw	48
  1660  007B10  ECAC  F03C         	call	_Send_Command
  1661                           
  1662                           ;main.c: 81: _delay((unsigned long)((100)*(48000000/4000000.0)));
  1663  007B14  0EF0               	movlw	240
  1664  007B16                     u307:
  1665  007B16  D000               	nop2	
  1666  007B18  2EE8               	decfsz	wreg,f,c
  1667  007B1A  D7FD               	goto	u307
  1668                           
  1669                           ;main.c: 82: Send_Command(0b00110000) ;
  1670  007B1C  0E30               	movlw	48
  1671  007B1E  ECAC  F03C         	call	_Send_Command
  1672                           
  1673                           ;main.c: 83: _delay((unsigned long)((110)*(48000000/4000000.0)));
  1674  007B22  0EDC               	movlw	220
  1675  007B24                     u317:
  1676  007B24  D000               	nop2	
  1677  007B26  F000               	nop	
  1678  007B28  2EE8               	decfsz	wreg,f,c
  1679  007B2A  D7FC               	goto	u317
  1680                           
  1681                           ;main.c: 84: Send_Command(0b00001100);
  1682  007B2C  0E0C               	movlw	12
  1683  007B2E  ECAC  F03C         	call	_Send_Command
  1684                           
  1685                           ;main.c: 85: _delay((unsigned long)((100)*(48000000/4000000.0)));
  1686  007B32  0EF0               	movlw	240
  1687  007B34                     u327:
  1688  007B34  D000               	nop2	
  1689  007B36  2EE8               	decfsz	wreg,f,c
  1690  007B38  D7FD               	goto	u327
  1691                           
  1692                           ;main.c: 86: Send_Command(0b00000001);
  1693  007B3A  0E01               	movlw	1
  1694  007B3C  ECAC  F03C         	call	_Send_Command
  1695                           
  1696                           ;main.c: 87: _delay((unsigned long)((2)*(48000000/4000.0)));
  1697  007B40  0E20               	movlw	32
  1698  007B42  6E12               	movwf	??_Initialize& (0+255),c
  1699  007B44  0E2A               	movlw	42
  1700  007B46                     u337:
  1701  007B46  2EE8               	decfsz	wreg,f,c
  1702  007B48  D7FE               	goto	u337
  1703  007B4A  2E12               	decfsz	??_Initialize& (0+255),f,c
  1704  007B4C  D7FC               	goto	u337
  1705                           
  1706                           ;main.c: 88: Send_Command(0b00000110);
  1707  007B4E  0E06               	movlw	6
  1708  007B50  ECAC  F03C         	call	_Send_Command
  1709                           
  1710                           ;main.c: 89: _delay((unsigned long)((80)*(48000000/4000000.0)));
  1711  007B54  0EF0               	movlw	240
  1712  007B56                     u347:
  1713  007B56  F000               	nop	
  1714  007B58  2EE8               	decfsz	wreg,f,c
  1715  007B5A  D7FD               	goto	u347
  1716                           
  1717                           ;main.c: 90: Send_Command(0b00000010);
  1718  007B5C  0E02               	movlw	2
  1719  007B5E  ECAC  F03C         	call	_Send_Command
  1720  007B62  0012               	return		;funcret
  1721  007B64                     __end_of_Initialize:
  1722                           	opt stack 0
  1723                           tblptru	equ	0xFF8
  1724                           tblptrh	equ	0xFF7
  1725                           tblptrl	equ	0xFF6
  1726                           tablat	equ	0xFF5
  1727                           postinc0	equ	0xFEE
  1728                           wreg	equ	0xFE8
  1729                           postdec1	equ	0xFE5
  1730                           fsr1l	equ	0xFE1
  1731                           indf2	equ	0xFDF
  1732                           fsr2h	equ	0xFDA
  1733                           fsr2l	equ	0xFD9
  1734                           status	equ	0xFD8
  1735                           
  1736 ;; *************** function _Image_Graphics *****************
  1737 ;; Defined at:
  1738 ;;		line 159 in file "main.c"
  1739 ;; Parameters:    Size  Location     Type
  1740 ;;  image           2    1[COMRAM] PTR unsigned char 
  1741 ;;		 -> MH(1024), 
  1742 ;; Auto vars:     Size  Location     Type
  1743 ;;  y               1    4[COMRAM] unsigned char 
  1744 ;;  x               1    3[COMRAM] unsigned char 
  1745 ;; Return value:  Size  Location     Type
  1746 ;;		None               void
  1747 ;; Registers used:
  1748 ;;		wreg, status,2, status,0, tblptrl, tblptrh, tblptru, cstack
  1749 ;; Tracked objects:
  1750 ;;		On entry : 0/0
  1751 ;;		On exit  : 0/0
  1752 ;;		Unchanged: 0/0
  1753 ;; Data sizes:     COMRAM   BANK0   BANK1   BANK2   BANK3   BANK4   BANK5   BANK6   BANK7
  1754 ;;      Params:         2       0       0       0       0       0       0       0       0
  1755 ;;      Locals:         2       0       0       0       0       0       0       0       0
  1756 ;;      Temps:          0       0       0       0       0       0       0       0       0
  1757 ;;      Totals:         4       0       0       0       0       0       0       0       0
  1758 ;;Total ram usage:        4 bytes
  1759 ;; Hardware stack levels used:    1
  1760 ;; Hardware stack levels required when called:    1
  1761 ;; This function calls:
  1762 ;;		_Send_Command
  1763 ;;		_Send_Data
  1764 ;; This function is called by:
  1765 ;;		_main
  1766 ;; This function uses a non-reentrant model
  1767 ;;
  1768                           
  1769                           	psect	text5
  1770  007A8E                     __ptext5:
  1771                           	opt stack 0
  1772  007A8E                     _Image_Graphics:
  1773                           	opt stack 29
  1774                           
  1775                           ;main.c: 160: unsigned char x, y;
  1776                           ;main.c: 161: for(y = 0; y < 64; y++){
  1777                           
  1778                           ;incstack = 0
  1779  007A8E  0E00               	movlw	0
  1780  007A90  6E15               	movwf	Image_Graphics@y,c
  1781  007A92                     l923:
  1782  007A92  0E3F               	movlw	63
  1783  007A94  6415               	cpfsgt	Image_Graphics@y,c
  1784  007A96  D001               	goto	l927
  1785  007A98  0012               	return	
  1786  007A9A                     l927:
  1787                           
  1788                           ;main.c: 162: if(y < 32){
  1789  007A9A  0E20               	movlw	32
  1790  007A9C  6015               	cpfslt	Image_Graphics@y,c
  1791  007A9E  D008               	goto	l933
  1792                           
  1793                           ;main.c: 163: Send_Command(0x80 | y);
  1794  007AA0  5015               	movf	Image_Graphics@y,w,c
  1795  007AA2  0980               	iorlw	128
  1796  007AA4  ECAC  F03C         	call	_Send_Command
  1797                           
  1798                           ;main.c: 164: Send_Command(0x80);
  1799  007AA8  0E80               	movlw	128
  1800  007AAA  ECAC  F03C         	call	_Send_Command
  1801                           
  1802                           ;main.c: 165: }
  1803  007AAE  D008               	goto	l937
  1804  007AB0                     l933:
  1805                           
  1806                           ;main.c: 166: else{
  1807                           ;main.c: 167: Send_Command(0x80 | (y-32));
  1808  007AB0  5015               	movf	Image_Graphics@y,w,c
  1809  007AB2  0FE0               	addlw	224
  1810  007AB4  0980               	iorlw	128
  1811  007AB6  ECAC  F03C         	call	_Send_Command
  1812                           
  1813                           ;main.c: 168: Send_Command(0x88);
  1814  007ABA  0E88               	movlw	136
  1815  007ABC  ECAC  F03C         	call	_Send_Command
  1816  007AC0                     l937:
  1817                           
  1818                           ;main.c: 169: }
  1819                           ;main.c: 170: for(x = 0; x < 16; x++){
  1820  007AC0  0E00               	movlw	0
  1821  007AC2  6E14               	movwf	Image_Graphics@x,c
  1822  007AC4                     l939:
  1823  007AC4  0E0F               	movlw	15
  1824  007AC6  6414               	cpfsgt	Image_Graphics@x,c
  1825  007AC8  D001               	goto	l943
  1826  007ACA  D00C               	goto	l951
  1827  007ACC                     l943:
  1828                           
  1829                           ;main.c: 171: Send_Data(*image++);
  1830  007ACC  C012  FFF6         	movff	Image_Graphics@image,tblptrl
  1831  007AD0  C013  FFF7         	movff	Image_Graphics@image+1,tblptrh
  1832  007AD4                     	if	0	;tblptru may be non-zero
  1833  007AD4                     	endif
  1834  007AD4                     	if	0	;tblptru may be non-zero
  1835  007AD4                     	endif
  1836  007AD4  0008               	tblrd		*
  1837  007AD6  50F5               	movf	tablat,w,c
  1838  007AD8  ECC9  F03C         	call	_Send_Data
  1839  007ADC  4A12               	infsnz	Image_Graphics@image,f,c
  1840  007ADE  2A13               	incf	Image_Graphics@image+1,f,c
  1841  007AE0  2A14               	incf	Image_Graphics@x,f,c
  1842  007AE2  D7F0               	goto	l939
  1843  007AE4                     l951:
  1844  007AE4  2A15               	incf	Image_Graphics@y,f,c
  1845  007AE6  D7D5               	goto	l923
  1846  007AE8                     __end_of_Image_Graphics:
  1847                           	opt stack 0
  1848                           tblptru	equ	0xFF8
  1849                           tblptrh	equ	0xFF7
  1850                           tblptrl	equ	0xFF6
  1851                           tablat	equ	0xFF5
  1852                           postinc0	equ	0xFEE
  1853                           wreg	equ	0xFE8
  1854                           postdec1	equ	0xFE5
  1855                           fsr1l	equ	0xFE1
  1856                           indf2	equ	0xFDF
  1857                           fsr2h	equ	0xFDA
  1858                           fsr2l	equ	0xFD9
  1859                           status	equ	0xFD8
  1860                           
  1861 ;; *************** function _Clear_Graphics *****************
  1862 ;; Defined at:
  1863 ;;		line 125 in file "main.c"
  1864 ;; Parameters:    Size  Location     Type
  1865 ;;		None
  1866 ;; Auto vars:     Size  Location     Type
  1867 ;;  y               1    2[COMRAM] unsigned char 
  1868 ;;  x               1    1[COMRAM] unsigned char 
  1869 ;; Return value:  Size  Location     Type
  1870 ;;		None               void
  1871 ;; Registers used:
  1872 ;;		wreg, status,2, status,0, cstack
  1873 ;; Tracked objects:
  1874 ;;		On entry : 0/0
  1875 ;;		On exit  : 0/0
  1876 ;;		Unchanged: 0/0
  1877 ;; Data sizes:     COMRAM   BANK0   BANK1   BANK2   BANK3   BANK4   BANK5   BANK6   BANK7
  1878 ;;      Params:         0       0       0       0       0       0       0       0       0
  1879 ;;      Locals:         2       0       0       0       0       0       0       0       0
  1880 ;;      Temps:          0       0       0       0       0       0       0       0       0
  1881 ;;      Totals:         2       0       0       0       0       0       0       0       0
  1882 ;;Total ram usage:        2 bytes
  1883 ;; Hardware stack levels used:    1
  1884 ;; Hardware stack levels required when called:    1
  1885 ;; This function calls:
  1886 ;;		_Send_Command
  1887 ;;		_Send_Data
  1888 ;; This function is called by:
  1889 ;;		_main
  1890 ;; This function uses a non-reentrant model
  1891 ;;
  1892                           
  1893                           	psect	text6
  1894  007A42                     __ptext6:
  1895                           	opt stack 0
  1896  007A42                     _Clear_Graphics:
  1897                           	opt stack 29
  1898                           
  1899                           ;main.c: 126: unsigned char x, y;
  1900                           ;main.c: 127: for(y = 0; y < 64; y++){
  1901                           
  1902                           ;incstack = 0
  1903  007A42  0E00               	movlw	0
  1904  007A44  6E13               	movwf	Clear_Graphics@y,c
  1905  007A46                     l779:
  1906  007A46  0E3F               	movlw	63
  1907  007A48  6413               	cpfsgt	Clear_Graphics@y,c
  1908  007A4A  D001               	goto	l783
  1909  007A4C  0012               	return	
  1910  007A4E                     l783:
  1911                           
  1912                           ;main.c: 128: if(y < 32){
  1913  007A4E  0E20               	movlw	32
  1914  007A50  6013               	cpfslt	Clear_Graphics@y,c
  1915  007A52  D008               	goto	l789
  1916                           
  1917                           ;main.c: 129: Send_Command(0x80 | y);
  1918  007A54  5013               	movf	Clear_Graphics@y,w,c
  1919  007A56  0980               	iorlw	128
  1920  007A58  ECAC  F03C         	call	_Send_Command
  1921                           
  1922                           ;main.c: 130: Send_Command(0x80);
  1923  007A5C  0E80               	movlw	128
  1924  007A5E  ECAC  F03C         	call	_Send_Command
  1925                           
  1926                           ;main.c: 131: }
  1927  007A62  D008               	goto	l793
  1928  007A64                     l789:
  1929                           
  1930                           ;main.c: 132: else{
  1931                           ;main.c: 133: Send_Command(0x80 | (y-32));
  1932  007A64  5013               	movf	Clear_Graphics@y,w,c
  1933  007A66  0FE0               	addlw	224
  1934  007A68  0980               	iorlw	128
  1935  007A6A  ECAC  F03C         	call	_Send_Command
  1936                           
  1937                           ;main.c: 134: Send_Command(0x88);
  1938  007A6E  0E88               	movlw	136
  1939  007A70  ECAC  F03C         	call	_Send_Command
  1940  007A74                     l793:
  1941                           
  1942                           ;main.c: 135: }
  1943                           ;main.c: 136: for(x = 0; x < 16; x++){
  1944  007A74  0E00               	movlw	0
  1945  007A76  6E12               	movwf	Clear_Graphics@x,c
  1946  007A78                     l795:
  1947  007A78  0E0F               	movlw	15
  1948  007A7A  6412               	cpfsgt	Clear_Graphics@x,c
  1949  007A7C  D001               	goto	l799
  1950  007A7E  D005               	goto	l805
  1951  007A80                     l799:
  1952                           
  1953                           ;main.c: 137: Send_Data(0x00);
  1954  007A80  0E00               	movlw	0
  1955  007A82  ECC9  F03C         	call	_Send_Data
  1956  007A86  2A12               	incf	Clear_Graphics@x,f,c
  1957  007A88  D7F7               	goto	l795
  1958  007A8A                     l805:
  1959  007A8A  2A13               	incf	Clear_Graphics@y,f,c
  1960  007A8C  D7DC               	goto	l779
  1961  007A8E                     __end_of_Clear_Graphics:
  1962                           	opt stack 0
  1963                           tblptru	equ	0xFF8
  1964                           tblptrh	equ	0xFF7
  1965                           tblptrl	equ	0xFF6
  1966                           tablat	equ	0xFF5
  1967                           postinc0	equ	0xFEE
  1968                           wreg	equ	0xFE8
  1969                           postdec1	equ	0xFE5
  1970                           fsr1l	equ	0xFE1
  1971                           indf2	equ	0xFDF
  1972                           fsr2h	equ	0xFDA
  1973                           fsr2l	equ	0xFD9
  1974                           status	equ	0xFD8
  1975                           
  1976 ;; *************** function _Send_Data *****************
  1977 ;; Defined at:
  1978 ;;		line 105 in file "main.c"
  1979 ;; Parameters:    Size  Location     Type
  1980 ;;  data            1    wreg     unsigned char 
  1981 ;; Auto vars:     Size  Location     Type
  1982 ;;  data            1    0[COMRAM] unsigned char 
  1983 ;; Return value:  Size  Location     Type
  1984 ;;		None               void
  1985 ;; Registers used:
  1986 ;;		wreg
  1987 ;; Tracked objects:
  1988 ;;		On entry : 0/0
  1989 ;;		On exit  : 0/0
  1990 ;;		Unchanged: 0/0
  1991 ;; Data sizes:     COMRAM   BANK0   BANK1   BANK2   BANK3   BANK4   BANK5   BANK6   BANK7
  1992 ;;      Params:         0       0       0       0       0       0       0       0       0
  1993 ;;      Locals:         1       0       0       0       0       0       0       0       0
  1994 ;;      Temps:          0       0       0       0       0       0       0       0       0
  1995 ;;      Totals:         1       0       0       0       0       0       0       0       0
  1996 ;;Total ram usage:        1 bytes
  1997 ;; Hardware stack levels used:    1
  1998 ;; This function calls:
  1999 ;;		Nothing
  2000 ;; This function is called by:
  2001 ;;		_main
  2002 ;;		_Clear_Graphics
  2003 ;;		_Image_Graphics
  2004 ;;		_Write_String
  2005 ;;		_Fill_Graphics
  2006 ;; This function uses a non-reentrant model
  2007 ;;
  2008                           
  2009                           	psect	text7
  2010  007992                     __ptext7:
  2011                           	opt stack 0
  2012  007992                     _Send_Data:
  2013                           	opt stack 29
  2014                           
  2015                           ;incstack = 0
  2016                           ;Send_Data@data stored from wreg
  2017  007992  6E11               	movwf	Send_Data@data,c
  2018                           
  2019                           ;main.c: 106: LATDbits.LATD1 = 1;
  2020  007994  828C               	bsf	3980,1,c	;volatile
  2021                           
  2022                           ;main.c: 107: _delay((unsigned long)((40)*(48000000/4000000.0)));
  2023  007996  0EA0               	movlw	160
  2024  007998                     u357:
  2025  007998  2EE8               	decfsz	wreg,f,c
  2026  00799A  D7FE               	goto	u357
  2027                           
  2028                           ;main.c: 108: LATB = data;
  2029  00799C  C011  FF8A         	movff	Send_Data@data,3978	;volatile
  2030                           
  2031                           ;main.c: 109: _delay((unsigned long)((30)*(48000000/4000000.0)));
  2032  0079A0  0E78               	movlw	120
  2033  0079A2                     u367:
  2034  0079A2  2EE8               	decfsz	wreg,f,c
  2035  0079A4  D7FE               	goto	u367
  2036                           
  2037                           ;main.c: 110: LATDbits.LATD2 = 1;
  2038  0079A6  848C               	bsf	3980,2,c	;volatile
  2039                           
  2040                           ;main.c: 111: _delay((unsigned long)((20)*(48000000/4000000.0)));
  2041  0079A8  0E50               	movlw	80
  2042  0079AA                     u377:
  2043  0079AA  2EE8               	decfsz	wreg,f,c
  2044  0079AC  D7FE               	goto	u377
  2045                           
  2046                           ;main.c: 112: LATDbits.LATD2 = 0;
  2047  0079AE  948C               	bcf	3980,2,c	;volatile
  2048                           
  2049                           ;main.c: 113: _delay((unsigned long)((20)*(48000000/4000000.0)));
  2050  0079B0  0E50               	movlw	80
  2051  0079B2                     u387:
  2052  0079B2  2EE8               	decfsz	wreg,f,c
  2053  0079B4  D7FE               	goto	u387
  2054  0079B6  0012               	return		;funcret
  2055  0079B8                     __end_of_Send_Data:
  2056                           	opt stack 0
  2057                           tblptru	equ	0xFF8
  2058                           tblptrh	equ	0xFF7
  2059                           tblptrl	equ	0xFF6
  2060                           tablat	equ	0xFF5
  2061                           postinc0	equ	0xFEE
  2062                           wreg	equ	0xFE8
  2063                           postdec1	equ	0xFE5
  2064                           fsr1l	equ	0xFE1
  2065                           indf2	equ	0xFDF
  2066                           fsr2h	equ	0xFDA
  2067                           fsr2l	equ	0xFD9
  2068                           status	equ	0xFD8
  2069                           
  2070 ;; *************** function _Send_Command *****************
  2071 ;; Defined at:
  2072 ;;		line 94 in file "main.c"
  2073 ;; Parameters:    Size  Location     Type
  2074 ;;  command         1    wreg     unsigned char 
  2075 ;; Auto vars:     Size  Location     Type
  2076 ;;  command         1    0[COMRAM] unsigned char 
  2077 ;; Return value:  Size  Location     Type
  2078 ;;		None               void
  2079 ;; Registers used:
  2080 ;;		wreg
  2081 ;; Tracked objects:
  2082 ;;		On entry : 0/0
  2083 ;;		On exit  : 0/0
  2084 ;;		Unchanged: 0/0
  2085 ;; Data sizes:     COMRAM   BANK0   BANK1   BANK2   BANK3   BANK4   BANK5   BANK6   BANK7
  2086 ;;      Params:         0       0       0       0       0       0       0       0       0
  2087 ;;      Locals:         1       0       0       0       0       0       0       0       0
  2088 ;;      Temps:          0       0       0       0       0       0       0       0       0
  2089 ;;      Totals:         1       0       0       0       0       0       0       0       0
  2090 ;;Total ram usage:        1 bytes
  2091 ;; Hardware stack levels used:    1
  2092 ;; This function calls:
  2093 ;;		Nothing
  2094 ;; This function is called by:
  2095 ;;		_main
  2096 ;;		_Initialize
  2097 ;;		_Set_GraphicMode
  2098 ;;		_Clear_Graphics
  2099 ;;		_Image_Graphics
  2100 ;;		_Write_String
  2101 ;;		_Fill_Graphics
  2102 ;; This function uses a non-reentrant model
  2103 ;;
  2104                           
  2105                           	psect	text8
  2106  007958                     __ptext8:
  2107                           	opt stack 0
  2108  007958                     _Send_Command:
  2109                           	opt stack 29
  2110                           
  2111                           ;incstack = 0
  2112                           ;Send_Command@command stored from wreg
  2113  007958  6E11               	movwf	Send_Command@command,c
  2114                           
  2115                           ;main.c: 95: LATDbits.LATD0=0;
  2116  00795A  908C               	bcf	3980,0,c	;volatile
  2117                           
  2118                           ;main.c: 96: LATDbits.LATD1 = 0;
  2119  00795C  928C               	bcf	3980,1,c	;volatile
  2120                           
  2121                           ;main.c: 97: _delay((unsigned long)((20)*(48000000/4000000.0)));
  2122  00795E  0E50               	movlw	80
  2123  007960                     u397:
  2124  007960  2EE8               	decfsz	wreg,f,c
  2125  007962  D7FE               	goto	u397
  2126                           
  2127                           ;main.c: 98: LATDbits.LATD2 = 1;
  2128  007964  848C               	bsf	3980,2,c	;volatile
  2129                           
  2130                           ;main.c: 99: LATB = command;
  2131  007966  C011  FF8A         	movff	Send_Command@command,3978	;volatile
  2132                           
  2133                           ;main.c: 100: _delay((unsigned long)((50)*(48000000/4000000.0)));
  2134  00796A  0EC8               	movlw	200
  2135  00796C                     u407:
  2136  00796C  2EE8               	decfsz	wreg,f,c
  2137  00796E  D7FE               	goto	u407
  2138                           
  2139                           ;main.c: 101: LATDbits.LATD2 = 0;
  2140  007970  948C               	bcf	3980,2,c	;volatile
  2141  007972  0012               	return		;funcret
  2142  007974                     __end_of_Send_Command:
  2143                           	opt stack 0
  2144                           tblptru	equ	0xFF8
  2145                           tblptrh	equ	0xFF7
  2146                           tblptrl	equ	0xFF6
  2147                           tablat	equ	0xFF5
  2148                           postinc0	equ	0xFEE
  2149                           wreg	equ	0xFE8
  2150                           postdec1	equ	0xFE5
  2151                           fsr1l	equ	0xFE1
  2152                           indf2	equ	0xFDF
  2153                           fsr2h	equ	0xFDA
  2154                           fsr2l	equ	0xFD9
  2155                           status	equ	0xFD8
  2156                           tblptru	equ	0xFF8
  2157                           tblptrh	equ	0xFF7
  2158                           tblptrl	equ	0xFF6
  2159                           tablat	equ	0xFF5
  2160                           postinc0	equ	0xFEE
  2161                           wreg	equ	0xFE8
  2162                           postdec1	equ	0xFE5
  2163                           fsr1l	equ	0xFE1
  2164                           indf2	equ	0xFDF
  2165                           fsr2h	equ	0xFDA
  2166                           fsr2l	equ	0xFD9
  2167                           status	equ	0xFD8
  2168                           
  2169                           	psect	rparam
  2170  0000                     tblptru	equ	0xFF8
  2171                           tblptrh	equ	0xFF7
  2172                           tblptrl	equ	0xFF6
  2173                           tablat	equ	0xFF5
  2174                           postinc0	equ	0xFEE
  2175                           wreg	equ	0xFE8
  2176                           postdec1	equ	0xFE5
  2177                           fsr1l	equ	0xFE1
  2178                           indf2	equ	0xFDF
  2179                           fsr2h	equ	0xFDA
  2180                           fsr2l	equ	0xFD9
  2181                           status	equ	0xFD8


Data Sizes:
    Strings     0
    Constant    1024
    Data        16
    BSS         0
    Persistent  0
    Stack       0

Auto Spaces:
    Space          Size  Autos    Used
    COMRAM           95      5      21
    BANK0           160      0       0
    BANK1           256      0       0
    BANK2           256      0       0
    BANK3           256      0       0
    BANK4           256      0       0
    BANK5           256      0       0
    BANK6           256      0       0
    BANK7           256      0       0

Pointer List with Targets:

    Write_String@string	PTR unsigned char  size(2) Largest target is 16
		 -> message(COMRAM[16]), 

    Image_Graphics@image	PTR unsigned char  size(2) Largest target is 1024
		 -> MH(CODE[1024]), 


Critical Paths under _main in COMRAM

    _main->_Image_Graphics
    _main->_Write_String
    _main->_delay_ms
    _Write_String->_Send_Command
    _Write_String->_Send_Data
    _Set_GraphicMode->_Send_Command
    _Initialize->_Send_Command
    _Image_Graphics->_Send_Command
    _Image_Graphics->_Send_Data
    _Clear_Graphics->_Send_Command
    _Clear_Graphics->_Send_Data

Critical Paths under _main in BANK0

    None.

Critical Paths under _main in BANK1

    None.

Critical Paths under _main in BANK2

    None.

Critical Paths under _main in BANK3

    None.

Critical Paths under _main in BANK4

    None.

Critical Paths under _main in BANK5

    None.

Critical Paths under _main in BANK6

    None.

Critical Paths under _main in BANK7

    None.

Call Graph Tables:

 ---------------------------------------------------------------------------------
 (Depth) Function   	        Calls       Base Space   Used Autos Params    Refs
 ---------------------------------------------------------------------------------
 (0) _main                                                 0     0      0     845
                     _Clear_Graphics
                     _Image_Graphics
                         _Initialize
                       _Send_Command
                          _Send_Data
                    _Set_GraphicMode
                       _Write_String
                           _delay_ms
 ---------------------------------------------------------------------------------
 (1) _delay_ms                                             5     1      4     150
                                              0 COMRAM     5     1      4
 ---------------------------------------------------------------------------------
 (1) _Write_String                                         4     0      4     225
                                              1 COMRAM     4     0      4
                       _Send_Command
                          _Send_Data
 ---------------------------------------------------------------------------------
 (1) _Set_GraphicMode                                      0     0      0      15
                       _Send_Command
 ---------------------------------------------------------------------------------
 (1) _Initialize                                           1     1      0      15
                                              1 COMRAM     1     1      0
                       _Send_Command
 ---------------------------------------------------------------------------------
 (1) _Image_Graphics                                       4     2      2     275
                                              1 COMRAM     4     2      2
                       _Send_Command
                          _Send_Data
 ---------------------------------------------------------------------------------
 (1) _Clear_Graphics                                       2     2      0     135
                                              1 COMRAM     2     2      0
                       _Send_Command
                          _Send_Data
 ---------------------------------------------------------------------------------
 (2) _Send_Data                                            1     1      0      15
                                              0 COMRAM     1     1      0
 ---------------------------------------------------------------------------------
 (2) _Send_Command                                         1     1      0      15
                                              0 COMRAM     1     1      0
 ---------------------------------------------------------------------------------
 Estimated maximum stack depth 2
 ---------------------------------------------------------------------------------

 Call Graph Graphs:

 _main (ROOT)
   _Clear_Graphics
     _Send_Command
     _Send_Data
   _Image_Graphics
     _Send_Command
     _Send_Data
   _Initialize
     _Send_Command
   _Send_Command
   _Send_Data
   _Set_GraphicMode
     _Send_Command
   _Write_String
     _Send_Command
     _Send_Data
   _delay_ms

 Address spaces:
Name               Size   Autos  Total    Cost      Usage
BIGRAM             7FF      0       0      21        0.0%
EEDATA             100      0       0       0        0.0%
BITBANK7           100      0       0      18        0.0%
BANK7              100      0       0      19        0.0%
BITBANK6           100      0       0      16        0.0%
BANK6              100      0       0      17        0.0%
BITBANK5           100      0       0      14        0.0%
BANK5              100      0       0      15        0.0%
BITBANK4           100      0       0      12        0.0%
BANK4              100      0       0      13        0.0%
BITBANK3           100      0       0      10        0.0%
BANK3              100      0       0      11        0.0%
BITBANK2           100      0       0       8        0.0%
BANK2              100      0       0       9        0.0%
BITBANK1           100      0       0       6        0.0%
BANK1              100      0       0       7        0.0%
BITBANK0            A0      0       0       4        0.0%
BANK0               A0      0       0       5        0.0%
BITCOMRAM           5F      0       0       0        0.0%
COMRAM              5F      5      15       1       22.1%
BITSFR               0      0       0      40        0.0%
SFR                  0      0       0      40        0.0%
STACK                0      0       0       2        0.0%
NULL                 0      0       0       0        0.0%
ABS                  0      0      15      20        0.0%
DATA                 0      0      15       3        0.0%
CODE                 0      0       0       0        0.0%


Microchip Technology PIC18 Macro Assembler V1.35 build -356382666 
Symbol Table                                                                                   Mon Apr 24 01:24:24 2017

           Send_Data@data 0011                        _MH 7BFF               __CFG_BOR$ON 000000  
             __CFG_BORV$3 000000              __CFG_CP0$OFF 000000              __CFG_CP1$OFF 000000  
                     l805 7A8A                       l911 7A1E                       l923 7A92  
                     l915 79C0                       l933 7AB0                       l909 7A0E  
                     l783 7A4E                       l951 7AE4                       l943 7ACC  
                     l927 7A9A                       l919 79D2                       l793 7A74  
                     l937 7AC0                       l795 7A78                       l779 7A46  
                     l939 7AC4                       l789 7A64                       l799 7A80  
                     l983 7BDC              __CFG_CPB$OFF 000000                       u307 7B16  
                     u317 7B24                       u407 796C                       u327 7B34  
                     u337 7B46                       u257 7A14                       u347 7B56  
                     u267 797C                       u357 7998                       u277 798A  
                     u367 79A2                       u287 7AF2                       u377 79AA  
                     u297 7B04                       u387 79B2                       u397 7960  
                     wreg 000FE8          ??_Image_Graphics 0014              __CFG_LVP$OFF 000000  
            __CFG_WDT$OFF 000000                      _LATB 000F8A                      _LATD 000F8C  
         ?_Clear_Graphics 0011                      _main 7B64                      fsr2h 000FDA  
                    fsr1l 000FE1                      indf2 000FDF                      fsr2l 000FD9  
   __size_of_Write_String 002A                      start 1000             __CFG_IESO$OFF 000000  
      Write_String@string 0014             __CFG_MCLRE$ON 000000              ___param_bank 000010  
           __CFG_PLLDIV$5 000000                     ?_main 0011             __CFG_USBDIV$2 000000  
                   _TRISB 000F93                     _TRISD 000F95             __CFG_PWRT$OFF 000000  
           __CFG_WRT0$OFF 000000             __CFG_WRT1$OFF 000000            __CFG_EBTR0$OFF 000000  
          __CFG_FCMEN$OFF 000000            __CFG_EBTR1$OFF 000000             __CFG_WRTB$OFF 000000  
           __CFG_WRTC$OFF 000000            __CFG_EBTRB$OFF 000000              _Write_String 79B8  
                   tablat 000FF5                     status 000FD8           __initialization 79E2  
            __end_of_main 7BFE                _Initialize 7AE8                    ??_main 0016  
           __activetblptr 000002                    _ADCON0 000FC2                    _ADCON1 000FC1  
          __CFG_VREGEN$ON 000000          __end_of_delay_ms 7A42            __CFG_XINST$OFF 000000  
      __size_of_Send_Data 0026            __CFG_STVREN$ON 000000             ?_Send_Command 0011  
            __pdataCOMRAM 0001              __mediumconst 7BFE                    tblptrh 000FF7  
                  tblptrl 000FF6                    tblptru 000FF8                __accesstop 0060  
 __end_of__initialization 7A02           __CFG_PBADEN$OFF 000000             ___rparam_used 000001  
          __pcstackCOMRAM 0011               ?_Initialize 0011                __end_of_MH 7FFF  
          ??_Send_Command 0011          ??_Clear_Graphics 0012         __end_of_Send_Data 79B8  
__size_of_Set_GraphicMode 001E                 ?_delay_ms 0011       __size_of_Initialize 007C  
                 __Hparam 0000                   __Lparam 0000                   __pcinit 79E2  
                 __ramtop 0800                   __ptext0 7B64                   __ptext1 7A0C  
                 __ptext2 79B8                   __ptext3 7974                   __ptext4 7AE8  
                 __ptext5 7A8E                   __ptext6 7A42                   __ptext7 7992  
                 __ptext8 7958                   _message 0001                ??_delay_ms 0015  
    end_of_initialization 7A02             __Lmediumconst 7BFE      __end_of_Send_Command 7974  
 __size_of_Image_Graphics 005A                   postdec1 000FE5                   postinc0 000FEE  
       ??_Set_GraphicMode 0012       Image_Graphics@image 0012              ??_Initialize 0012  
           __pidataCOMRAM 7948       start_initialization 79E2                 _Send_Data 7992  
      __end_of_Initialize 7B64          __CFG_LPT1OSC$OFF 000000             ?_Write_String 0012  
       __size_of_delay_ms 0036     __size_of_Send_Command 001C                ?_Send_Data 0011  
          _Image_Graphics 7A8E             __pmediumconst 7BFE             Write_String@Y 0012  
            _Send_Command 7958            ??_Write_String 0016           _Set_GraphicMode 7974  
  __end_of_Image_Graphics 7AE8           Image_Graphics@x 0014           Image_Graphics@y 0015  
                _LATDbits 000F8C                 delay_ms@n 0011   __size_of_Clear_Graphics 004C  
        __CFG_WDTPS$32768 000000                _ADCON1bits 000FC1       Send_Command@command 0011  
         Clear_Graphics@x 0012           Clear_Graphics@y 0013                 copy_data0 79F6  
             ??_Send_Data 0011           ?_Image_Graphics 0012                  __Hrparam 0000  
                __Lrparam 0000                  _delay_ms 7A0C   __end_of_Set_GraphicMode 7992  
           __size_of_main 009A      __end_of_Write_String 79E2     __CFG_CPUDIV$OSC1_PLL2 000000  
          _Clear_Graphics 7A42          ?_Set_GraphicMode 0011        __CFG_FOSC$HSPLL_HS 000000  
  __end_of_Clear_Graphics 7A8E  
